{
	"FundMe.sol": {
		"FundMe": {
			"abi": [
				{
					"inputs": [],
					"stateMutability": "nonpayable",
					"type": "constructor"
				},
				{
					"inputs": [
						{
							"internalType": "address",
							"name": "",
							"type": "address"
						}
					],
					"name": "addressToAmounFunded",
					"outputs": [
						{
							"internalType": "uint256",
							"name": "",
							"type": "uint256"
						}
					],
					"stateMutability": "view",
					"type": "function"
				},
				{
					"inputs": [],
					"name": "fund",
					"outputs": [],
					"stateMutability": "payable",
					"type": "function"
				},
				{
					"inputs": [
						{
							"internalType": "uint256",
							"name": "",
							"type": "uint256"
						}
					],
					"name": "fundersAdd",
					"outputs": [
						{
							"internalType": "address",
							"name": "",
							"type": "address"
						}
					],
					"stateMutability": "view",
					"type": "function"
				},
				{
					"inputs": [],
					"name": "minimumUSD",
					"outputs": [
						{
							"internalType": "uint256",
							"name": "",
							"type": "uint256"
						}
					],
					"stateMutability": "view",
					"type": "function"
				},
				{
					"inputs": [],
					"name": "owner",
					"outputs": [
						{
							"internalType": "address",
							"name": "",
							"type": "address"
						}
					],
					"stateMutability": "view",
					"type": "function"
				},
				{
					"inputs": [],
					"name": "withdraw",
					"outputs": [],
					"stateMutability": "nonpayable",
					"type": "function"
				}
			],
			"devdoc": {
				"kind": "dev",
				"methods": {},
				"version": 1
			},
			"evm": {
				"assembly": "    /* \"FundMe.sol\":193:1769  contract FundMe {... */\n  mstore(0x40, 0x80)\n    /* \"FundMe.sol\":282:286  5e18 */\n  0x4563918244f40000\n    /* \"FundMe.sol\":254:286  uint256 public minimumUSD = 5e18 */\n  0x00\n  sstore\n    /* \"FundMe.sol\":414:463  constructor() {... */\n  callvalue\n  dup1\n  iszero\n  tag_1\n  jumpi\n  revert(0x00, 0x00)\ntag_1:\n  pop\n    /* \"FundMe.sol\":446:456  msg.sender */\n  caller\n    /* \"FundMe.sol\":438:443  owner */\n  0x03\n  0x00\n    /* \"FundMe.sol\":438:456  owner = msg.sender */\n  0x0100\n  exp\n  dup2\n  sload\n  dup2\n  0xffffffffffffffffffffffffffffffffffffffff\n  mul\n  not\n  and\n  swap1\n  dup4\n  0xffffffffffffffffffffffffffffffffffffffff\n  and\n  mul\n  or\n  swap1\n  sstore\n  pop\n    /* \"FundMe.sol\":193:1769  contract FundMe {... */\n  dataSize(sub_0)\n  dup1\n  dataOffset(sub_0)\n  0x00\n  codecopy\n  0x00\n  return\nstop\n\nsub_0: assembly {\n        /* \"FundMe.sol\":193:1769  contract FundMe {... */\n      mstore(0x40, 0x80)\n      jumpi(tag_1, lt(calldatasize, 0x04))\n      shr(0xe0, calldataload(0x00))\n      dup1\n      0x3430a88c\n      eq\n      tag_2\n      jumpi\n      dup1\n      0x3ccfd60b\n      eq\n      tag_3\n      jumpi\n      dup1\n      0x80da04da\n      eq\n      tag_4\n      jumpi\n      dup1\n      0x8da5cb5b\n      eq\n      tag_5\n      jumpi\n      dup1\n      0xb12b0b2b\n      eq\n      tag_6\n      jumpi\n      dup1\n      0xb60d4288\n      eq\n      tag_7\n      jumpi\n    tag_1:\n      revert(0x00, 0x00)\n        /* \"FundMe.sol\":254:286  uint256 public minimumUSD = 5e18 */\n    tag_2:\n      callvalue\n      dup1\n      iszero\n      tag_8\n      jumpi\n      revert(0x00, 0x00)\n    tag_8:\n      pop\n      tag_9\n      tag_10\n      jump\t// in\n    tag_9:\n      mload(0x40)\n      tag_11\n      swap2\n      swap1\n      tag_12\n      jump\t// in\n    tag_11:\n      mload(0x40)\n      dup1\n      swap2\n      sub\n      swap1\n      return\n        /* \"FundMe.sol\":764:1667  function withdraw() public onlyOwner {... */\n    tag_3:\n      callvalue\n      dup1\n      iszero\n      tag_13\n      jumpi\n      revert(0x00, 0x00)\n    tag_13:\n      pop\n      tag_14\n      tag_15\n      jump\t// in\n    tag_14:\n      stop\n        /* \"FundMe.sol\":292:319  address[] public fundersAdd */\n    tag_4:\n      callvalue\n      dup1\n      iszero\n      tag_16\n      jumpi\n      revert(0x00, 0x00)\n    tag_16:\n      pop\n      tag_17\n      0x04\n      dup1\n      calldatasize\n      sub\n      dup2\n      add\n      swap1\n      tag_18\n      swap2\n      swap1\n      tag_19\n      jump\t// in\n    tag_18:\n      tag_20\n      jump\t// in\n    tag_17:\n      mload(0x40)\n      tag_21\n      swap2\n      swap1\n      tag_22\n      jump\t// in\n    tag_21:\n      mload(0x40)\n      dup1\n      swap2\n      sub\n      swap1\n      return\n        /* \"FundMe.sol\":387:407  address public owner */\n    tag_5:\n      callvalue\n      dup1\n      iszero\n      tag_23\n      jumpi\n      revert(0x00, 0x00)\n    tag_23:\n      pop\n      tag_24\n      tag_25\n      jump\t// in\n    tag_24:\n      mload(0x40)\n      tag_26\n      swap2\n      swap1\n      tag_22\n      jump\t// in\n    tag_26:\n      mload(0x40)\n      dup1\n      swap2\n      sub\n      swap1\n      return\n        /* \"FundMe.sol\":325:380  mapping(address => uint256) public addressToAmounFunded */\n    tag_6:\n      callvalue\n      dup1\n      iszero\n      tag_27\n      jumpi\n      revert(0x00, 0x00)\n    tag_27:\n      pop\n      tag_28\n      0x04\n      dup1\n      calldatasize\n      sub\n      dup2\n      add\n      swap1\n      tag_29\n      swap2\n      swap1\n      tag_30\n      jump\t// in\n    tag_29:\n      tag_31\n      jump\t// in\n    tag_28:\n      mload(0x40)\n      tag_32\n      swap2\n      swap1\n      tag_12\n      jump\t// in\n    tag_32:\n      mload(0x40)\n      dup1\n      swap2\n      sub\n      swap1\n      return\n        /* \"FundMe.sol\":469:758  function fund() public payable {... */\n    tag_7:\n      tag_33\n      tag_34\n      jump\t// in\n    tag_33:\n      stop\n        /* \"FundMe.sol\":254:286  uint256 public minimumUSD = 5e18 */\n    tag_10:\n      sload(0x00)\n      dup2\n      jump\t// out\n        /* \"FundMe.sol\":764:1667  function withdraw() public onlyOwner {... */\n    tag_15:\n        /* \"FundMe.sol\":1726:1731  owner */\n      0x03\n      0x00\n      swap1\n      sload\n      swap1\n      0x0100\n      exp\n      swap1\n      div\n      0xffffffffffffffffffffffffffffffffffffffff\n      and\n        /* \"FundMe.sol\":1712:1731  msg.sender == owner */\n      0xffffffffffffffffffffffffffffffffffffffff\n      and\n        /* \"FundMe.sol\":1712:1722  msg.sender */\n      caller\n        /* \"FundMe.sol\":1712:1731  msg.sender == owner */\n      0xffffffffffffffffffffffffffffffffffffffff\n      and\n      eq\n        /* \"FundMe.sol\":1704:1749  require(msg.sender == owner, \"Must be owner\") */\n      tag_36\n      jumpi\n      mload(0x40)\n      0x08c379a000000000000000000000000000000000000000000000000000000000\n      dup2\n      mstore\n      0x04\n      add\n      tag_37\n      swap1\n      tag_38\n      jump\t// in\n    tag_37:\n      mload(0x40)\n      dup1\n      swap2\n      sub\n      swap1\n      revert\n    tag_36:\n        /* \"FundMe.sol\":833:838  owner */\n      0x03\n      0x00\n      swap1\n      sload\n      swap1\n      0x0100\n      exp\n      swap1\n      div\n      0xffffffffffffffffffffffffffffffffffffffff\n      and\n        /* \"FundMe.sol\":819:838  msg.sender == owner */\n      0xffffffffffffffffffffffffffffffffffffffff\n      and\n        /* \"FundMe.sol\":819:829  msg.sender */\n      caller\n        /* \"FundMe.sol\":819:838  msg.sender == owner */\n      0xffffffffffffffffffffffffffffffffffffffff\n      and\n      eq\n        /* \"FundMe.sol\":811:856  require(msg.sender == owner, \"Must be owner\") */\n      tag_40\n      jumpi\n      mload(0x40)\n      0x08c379a000000000000000000000000000000000000000000000000000000000\n      dup2\n      mstore\n      0x04\n      add\n      tag_41\n      swap1\n      tag_38\n      jump\t// in\n    tag_41:\n      mload(0x40)\n      dup1\n      swap2\n      sub\n      swap1\n      revert\n    tag_40:\n        /* \"FundMe.sol\":871:880  uint256 i */\n      0x00\n        /* \"FundMe.sol\":883:884  0 */\n      0x00\n        /* \"FundMe.sol\":871:884  uint256 i = 0 */\n      swap1\n      pop\n        /* \"FundMe.sol\":866:1015  for (uint256 i = 0; i < fundersAdd.length; i++) {... */\n    tag_42:\n        /* \"FundMe.sol\":890:900  fundersAdd */\n      0x01\n        /* \"FundMe.sol\":890:907  fundersAdd.length */\n      dup1\n      sload\n      swap1\n      pop\n        /* \"FundMe.sol\":886:887  i */\n      dup2\n        /* \"FundMe.sol\":886:907  i < fundersAdd.length */\n      lt\n        /* \"FundMe.sol\":866:1015  for (uint256 i = 0; i < fundersAdd.length; i++) {... */\n      iszero\n      tag_43\n      jumpi\n        /* \"FundMe.sol\":928:942  address funder */\n      0x00\n        /* \"FundMe.sol\":945:955  fundersAdd */\n      0x01\n        /* \"FundMe.sol\":956:957  i */\n      dup3\n        /* \"FundMe.sol\":945:958  fundersAdd[i] */\n      dup2\n      sload\n      dup2\n      lt\n      tag_45\n      jumpi\n      tag_46\n      tag_47\n      jump\t// in\n    tag_46:\n    tag_45:\n      swap1\n      0x00\n      mstore\n      keccak256(0x00, 0x20)\n      add\n      0x00\n      swap1\n      sload\n      swap1\n      0x0100\n      exp\n      swap1\n      div\n      0xffffffffffffffffffffffffffffffffffffffff\n      and\n        /* \"FundMe.sol\":928:958  address funder = fundersAdd[i] */\n      swap1\n      pop\n        /* \"FundMe.sol\":1003:1004  0 */\n      0x00\n        /* \"FundMe.sol\":972:992  addressToAmounFunded */\n      0x02\n        /* \"FundMe.sol\":972:1000  addressToAmounFunded[funder] */\n      0x00\n        /* \"FundMe.sol\":993:999  funder */\n      dup4\n        /* \"FundMe.sol\":972:1000  addressToAmounFunded[funder] */\n      0xffffffffffffffffffffffffffffffffffffffff\n      and\n      0xffffffffffffffffffffffffffffffffffffffff\n      and\n      dup2\n      mstore\n      0x20\n      add\n      swap1\n      dup2\n      mstore\n      0x20\n      add\n      0x00\n      keccak256\n        /* \"FundMe.sol\":972:1004  addressToAmounFunded[funder] = 0 */\n      dup2\n      swap1\n      sstore\n      pop\n        /* \"FundMe.sol\":914:1015  {... */\n      pop\n        /* \"FundMe.sol\":909:912  i++ */\n      dup1\n      dup1\n      0x01\n      add\n      swap2\n      pop\n      pop\n        /* \"FundMe.sol\":866:1015  for (uint256 i = 0; i < fundersAdd.length; i++) {... */\n      jump(tag_42)\n    tag_43:\n      pop\n        /* \"FundMe.sol\":1051:1052  0 */\n      0x00\n        /* \"FundMe.sol\":1037:1053  new address[](0) */\n      0xffffffffffffffff\n      dup2\n      gt\n      iszero\n      tag_49\n      jumpi\n      tag_50\n      tag_51\n      jump\t// in\n    tag_50:\n    tag_49:\n      mload(0x40)\n      swap1\n      dup1\n      dup3\n      mstore\n      dup1\n      0x20\n      mul\n      0x20\n      add\n      dup3\n      add\n      0x40\n      mstore\n      dup1\n      iszero\n      tag_52\n      jumpi\n      dup2\n      0x20\n      add\n      0x20\n      dup3\n      mul\n      dup1\n      calldatasize\n      dup4\n      calldatacopy\n      dup1\n      dup3\n      add\n      swap2\n      pop\n      pop\n      swap1\n      pop\n    tag_52:\n      pop\n        /* \"FundMe.sol\":1024:1034  fundersAdd */\n      0x01\n        /* \"FundMe.sol\":1024:1053  fundersAdd = new address[](0) */\n      swap1\n      dup1\n      mload\n      swap1\n      0x20\n      add\n      swap1\n      tag_53\n      swap3\n      swap2\n      swap1\n      tag_54\n      jump\t// in\n    tag_53:\n      pop\n        /* \"FundMe.sol\":1513:1529  bool callSuccess */\n      0x00\n        /* \"FundMe.sol\":1543:1553  msg.sender */\n      caller\n        /* \"FundMe.sol\":1535:1559  payable(msg.sender).call */\n      0xffffffffffffffffffffffffffffffffffffffff\n      and\n        /* \"FundMe.sol\":1580:1601  address(this).balance */\n      selfbalance\n        /* \"FundMe.sol\":1535:1615  payable(msg.sender).call{... */\n      mload(0x40)\n      tag_55\n      swap1\n      tag_56\n      jump\t// in\n    tag_55:\n      0x00\n      mload(0x40)\n      dup1\n      dup4\n      sub\n      dup2\n      dup6\n      dup8\n      gas\n      call\n      swap3\n      pop\n      pop\n      pop\n      returndatasize\n      dup1\n      0x00\n      dup2\n      eq\n      tag_59\n      jumpi\n      mload(0x40)\n      swap2\n      pop\n      and(add(returndatasize, 0x3f), not(0x1f))\n      dup3\n      add\n      0x40\n      mstore\n      returndatasize\n      dup3\n      mstore\n      returndatasize\n      0x00\n      0x20\n      dup5\n      add\n      returndatacopy\n      jump(tag_58)\n    tag_59:\n      0x60\n      swap2\n      pop\n    tag_58:\n      pop\n        /* \"FundMe.sol\":1512:1615  (bool callSuccess, ) = payable(msg.sender).call{... */\n      pop\n      swap1\n      pop\n        /* \"FundMe.sol\":1633:1644  callSuccess */\n      dup1\n        /* \"FundMe.sol\":1625:1660  require(callSuccess, \"Call Failed\") */\n      tag_60\n      jumpi\n      mload(0x40)\n      0x08c379a000000000000000000000000000000000000000000000000000000000\n      dup2\n      mstore\n      0x04\n      add\n      tag_61\n      swap1\n      tag_62\n      jump\t// in\n    tag_61:\n      mload(0x40)\n      dup1\n      swap2\n      sub\n      swap1\n      revert\n    tag_60:\n        /* \"FundMe.sol\":801:1667  {... */\n      pop\n        /* \"FundMe.sol\":764:1667  function withdraw() public onlyOwner {... */\n      jump\t// out\n        /* \"FundMe.sol\":292:319  address[] public fundersAdd */\n    tag_20:\n      0x01\n      dup2\n      dup2\n      sload\n      dup2\n      lt\n      tag_63\n      jumpi\n      0x00\n      dup1\n      revert\n    tag_63:\n      swap1\n      0x00\n      mstore\n      keccak256(0x00, 0x20)\n      add\n      0x00\n      swap2\n      pop\n      sload\n      swap1\n      0x0100\n      exp\n      swap1\n      div\n      0xffffffffffffffffffffffffffffffffffffffff\n      and\n      dup2\n      jump\t// out\n        /* \"FundMe.sol\":387:407  address public owner */\n    tag_25:\n      0x03\n      0x00\n      swap1\n      sload\n      swap1\n      0x0100\n      exp\n      swap1\n      div\n      0xffffffffffffffffffffffffffffffffffffffff\n      and\n      dup2\n      jump\t// out\n        /* \"FundMe.sol\":325:380  mapping(address => uint256) public addressToAmounFunded */\n    tag_31:\n      mstore(0x20, 0x02)\n      dup1\n      0x00\n      mstore\n      keccak256(0x00, 0x40)\n      0x00\n      swap2\n      pop\n      swap1\n      pop\n      sload\n      dup2\n      jump\t// out\n        /* \"FundMe.sol\":469:758  function fund() public payable {... */\n    tag_34:\n        /* \"FundMe.sol\":544:554  minimumUSD */\n      sload(0x00)\n        /* \"FundMe.sol\":518:540  msg.value.getConvert() */\n      tag_66\n        /* \"FundMe.sol\":518:527  msg.value */\n      callvalue\n        /* \"FundMe.sol\":518:538  msg.value.getConvert */\n      tag_67\n        /* \"FundMe.sol\":518:540  msg.value.getConvert() */\n      jump\t// in\n    tag_66:\n        /* \"FundMe.sol\":518:554  msg.value.getConvert() >= minimumUSD */\n      lt\n      iszero\n        /* \"FundMe.sol\":510:581  require(msg.value.getConvert() >= minimumUSD, \"Didn't send enough ETH\") */\n      tag_68\n      jumpi\n      mload(0x40)\n      0x08c379a000000000000000000000000000000000000000000000000000000000\n      dup2\n      mstore\n      0x04\n      add\n      tag_69\n      swap1\n      tag_70\n      jump\t// in\n    tag_69:\n      mload(0x40)\n      dup1\n      swap2\n      sub\n      swap1\n      revert\n    tag_68:\n        /* \"FundMe.sol\":611:621  fundersAdd */\n      0x01\n        /* \"FundMe.sol\":627:637  msg.sender */\n      caller\n        /* \"FundMe.sol\":611:638  fundersAdd.push(msg.sender) */\n      swap1\n      dup1\n      0x01\n      dup2\n      sload\n      add\n      dup1\n      dup3\n      sstore\n      dup1\n      swap2\n      pop\n      pop\n      0x01\n      swap1\n      sub\n      swap1\n      0x00\n      mstore\n      keccak256(0x00, 0x20)\n      add\n      0x00\n      swap1\n      swap2\n      swap1\n      swap2\n      swap1\n      swap2\n      0x0100\n      exp\n      dup2\n      sload\n      dup2\n      0xffffffffffffffffffffffffffffffffffffffff\n      mul\n      not\n      and\n      swap1\n      dup4\n      0xffffffffffffffffffffffffffffffffffffffff\n      and\n      mul\n      or\n      swap1\n      sstore\n      pop\n        /* \"FundMe.sol\":742:751  msg.value */\n      callvalue\n        /* \"FundMe.sol\":695:715  addressToAmounFunded */\n      0x02\n        /* \"FundMe.sol\":695:727  addressToAmounFunded[msg.sender] */\n      0x00\n        /* \"FundMe.sol\":716:726  msg.sender */\n      caller\n        /* \"FundMe.sol\":695:727  addressToAmounFunded[msg.sender] */\n      0xffffffffffffffffffffffffffffffffffffffff\n      and\n      0xffffffffffffffffffffffffffffffffffffffff\n      and\n      dup2\n      mstore\n      0x20\n      add\n      swap1\n      dup2\n      mstore\n      0x20\n      add\n      0x00\n      keccak256\n      sload\n        /* \"FundMe.sol\":695:751  addressToAmounFunded[msg.sender] +... */\n      tag_72\n      swap2\n      swap1\n      tag_73\n      jump\t// in\n    tag_72:\n        /* \"FundMe.sol\":648:668  addressToAmounFunded */\n      0x02\n        /* \"FundMe.sol\":648:680  addressToAmounFunded[msg.sender] */\n      0x00\n        /* \"FundMe.sol\":669:679  msg.sender */\n      caller\n        /* \"FundMe.sol\":648:680  addressToAmounFunded[msg.sender] */\n      0xffffffffffffffffffffffffffffffffffffffff\n      and\n      0xffffffffffffffffffffffffffffffffffffffff\n      and\n      dup2\n      mstore\n      0x20\n      add\n      swap1\n      dup2\n      mstore\n      0x20\n      add\n      0x00\n      keccak256\n        /* \"FundMe.sol\":648:751  addressToAmounFunded[msg.sender] =... */\n      dup2\n      swap1\n      sstore\n      pop\n        /* \"FundMe.sol\":469:758  function fund() public payable {... */\n      jump\t// out\n        /* \"PriceConverter.sol\":613:813  function getConvert(uint256 ethAmount) internal view returns (uint256) {... */\n    tag_67:\n        /* \"PriceConverter.sol\":675:682  uint256 */\n      0x00\n        /* \"PriceConverter.sol\":694:710  uint256 ethprice */\n      0x00\n        /* \"PriceConverter.sol\":713:723  getPrice() */\n      tag_75\n        /* \"PriceConverter.sol\":713:721  getPrice */\n      tag_76\n        /* \"PriceConverter.sol\":713:723  getPrice() */\n      jump\t// in\n    tag_75:\n        /* \"PriceConverter.sol\":694:723  uint256 ethprice = getPrice() */\n      swap1\n      pop\n        /* \"PriceConverter.sol\":733:749  uint256 ethAmUSD */\n      0x00\n        /* \"PriceConverter.sol\":777:781  1e18 */\n      0x0de0b6b3a7640000\n        /* \"PriceConverter.sol\":764:773  ethAmount */\n      dup5\n        /* \"PriceConverter.sol\":753:761  ethprice */\n      dup4\n        /* \"PriceConverter.sol\":753:773  ethprice * ethAmount */\n      tag_77\n      swap2\n      swap1\n      tag_78\n      jump\t// in\n    tag_77:\n        /* \"PriceConverter.sol\":752:781  (ethprice * ethAmount) / 1e18 */\n      tag_79\n      swap2\n      swap1\n      tag_80\n      jump\t// in\n    tag_79:\n        /* \"PriceConverter.sol\":733:781  uint256 ethAmUSD = (ethprice * ethAmount) / 1e18 */\n      swap1\n      pop\n        /* \"PriceConverter.sol\":798:806  ethAmUSD */\n      dup1\n        /* \"PriceConverter.sol\":791:806  return ethAmUSD */\n      swap3\n      pop\n      pop\n      pop\n        /* \"PriceConverter.sol\":613:813  function getConvert(uint256 ethAmount) internal view returns (uint256) {... */\n      swap2\n      swap1\n      pop\n      jump\t// out\n        /* \"PriceConverter.sol\":201:607  function getPrice() internal view returns (uint256) {... */\n    tag_76:\n        /* \"PriceConverter.sol\":244:251  uint256 */\n      0x00\n        /* \"PriceConverter.sol\":340:371  AggregatorV3Interface priceFeed */\n      0x00\n        /* \"PriceConverter.sol\":409:451  0x694AA1769357215DE4FAC081bf1f309aDC325306 */\n      0x694aa1769357215de4fac081bf1f309adc325306\n        /* \"PriceConverter.sol\":340:461  AggregatorV3Interface priceFeed = AggregatorV3Interface(... */\n      swap1\n      pop\n        /* \"PriceConverter.sol\":474:486  int256 price */\n      0x00\n        /* \"PriceConverter.sol\":496:505  priceFeed */\n      dup2\n        /* \"PriceConverter.sol\":496:521  priceFeed.latestRoundData */\n      0xffffffffffffffffffffffffffffffffffffffff\n      and\n      0xfeaf968c\n        /* \"PriceConverter.sol\":496:523  priceFeed.latestRoundData() */\n      mload(0x40)\n      dup2\n      0xffffffff\n      and\n      0xe0\n      shl\n      dup2\n      mstore\n      0x04\n      add\n      0xa0\n      mload(0x40)\n      dup1\n      dup4\n      sub\n      dup2\n      dup7\n      gas\n      staticcall\n      iszero\n      dup1\n      iszero\n      tag_83\n      jumpi\n      returndatacopy(0x00, 0x00, returndatasize)\n      revert(0x00, returndatasize)\n    tag_83:\n      pop\n      pop\n      pop\n      pop\n      mload(0x40)\n      returndatasize\n      not(0x1f)\n      0x1f\n      dup3\n      add\n      and\n      dup3\n      add\n      dup1\n      0x40\n      mstore\n      pop\n      dup2\n      add\n      swap1\n      tag_84\n      swap2\n      swap1\n      tag_85\n      jump\t// in\n    tag_84:\n        /* \"PriceConverter.sol\":471:523  (, int256 price, , , ) = priceFeed.latestRoundData() */\n      pop\n      pop\n      pop\n      swap2\n      pop\n      pop\n        /* \"PriceConverter.sol\":595:599  1e10 */\n      0x02540be400\n        /* \"PriceConverter.sol\":587:592  price */\n      dup2\n        /* \"PriceConverter.sol\":587:599  price * 1e10 */\n      tag_86\n      swap2\n      swap1\n      tag_87\n      jump\t// in\n    tag_86:\n        /* \"PriceConverter.sol\":572:600  return uint256(price * 1e10) */\n      swap3\n      pop\n      pop\n      pop\n        /* \"PriceConverter.sol\":201:607  function getPrice() internal view returns (uint256) {... */\n      swap1\n      jump\t// out\n    tag_54:\n      dup3\n      dup1\n      sload\n      dup3\n      dup3\n      sstore\n      swap1\n      0x00\n      mstore\n      keccak256(0x00, 0x20)\n      swap1\n      dup2\n      add\n      swap3\n      dup3\n      iszero\n      tag_88\n      jumpi\n      swap2\n      0x20\n      mul\n      dup3\n      add\n    tag_89:\n      dup3\n      dup2\n      gt\n      iszero\n      tag_90\n      jumpi\n      dup3\n      mload\n      dup3\n      exp(0x0100, 0x00)\n      dup2\n      sload\n      dup2\n      0xffffffffffffffffffffffffffffffffffffffff\n      mul\n      not\n      and\n      swap1\n      dup4\n      0xffffffffffffffffffffffffffffffffffffffff\n      and\n      mul\n      or\n      swap1\n      sstore\n      pop\n      swap2\n      0x20\n      add\n      swap2\n      swap1\n      0x01\n      add\n      swap1\n      jump(tag_89)\n    tag_90:\n    tag_88:\n      pop\n      swap1\n      pop\n      tag_91\n      swap2\n      swap1\n      tag_92\n      jump\t// in\n    tag_91:\n      pop\n      swap1\n      jump\t// out\n    tag_92:\n    tag_93:\n      dup1\n      dup3\n      gt\n      iszero\n      tag_94\n      jumpi\n      0x00\n      dup2\n      0x00\n      swap1\n      sstore\n      pop\n      0x01\n      add\n      jump(tag_93)\n    tag_94:\n      pop\n      swap1\n      jump\t// out\n        /* \"#utility.yul\":7:84   */\n    tag_95:\n        /* \"#utility.yul\":44:51   */\n      0x00\n        /* \"#utility.yul\":73:78   */\n      dup2\n        /* \"#utility.yul\":62:78   */\n      swap1\n      pop\n        /* \"#utility.yul\":7:84   */\n      swap2\n      swap1\n      pop\n      jump\t// out\n        /* \"#utility.yul\":90:208   */\n    tag_96:\n        /* \"#utility.yul\":177:201   */\n      tag_129\n        /* \"#utility.yul\":195:200   */\n      dup2\n        /* \"#utility.yul\":177:201   */\n      tag_95\n      jump\t// in\n    tag_129:\n        /* \"#utility.yul\":172:175   */\n      dup3\n        /* \"#utility.yul\":165:202   */\n      mstore\n        /* \"#utility.yul\":90:208   */\n      pop\n      pop\n      jump\t// out\n        /* \"#utility.yul\":214:436   */\n    tag_12:\n        /* \"#utility.yul\":307:311   */\n      0x00\n        /* \"#utility.yul\":345:347   */\n      0x20\n        /* \"#utility.yul\":334:343   */\n      dup3\n        /* \"#utility.yul\":330:348   */\n      add\n        /* \"#utility.yul\":322:348   */\n      swap1\n      pop\n        /* \"#utility.yul\":358:429   */\n      tag_131\n        /* \"#utility.yul\":426:427   */\n      0x00\n        /* \"#utility.yul\":415:424   */\n      dup4\n        /* \"#utility.yul\":411:428   */\n      add\n        /* \"#utility.yul\":402:408   */\n      dup5\n        /* \"#utility.yul\":358:429   */\n      tag_96\n      jump\t// in\n    tag_131:\n        /* \"#utility.yul\":214:436   */\n      swap3\n      swap2\n      pop\n      pop\n      jump\t// out\n        /* \"#utility.yul\":523:640   */\n    tag_98:\n        /* \"#utility.yul\":632:633   */\n      0x00\n        /* \"#utility.yul\":629:630   */\n      0x00\n        /* \"#utility.yul\":622:634   */\n      revert\n        /* \"#utility.yul\":769:891   */\n    tag_100:\n        /* \"#utility.yul\":842:866   */\n      tag_136\n        /* \"#utility.yul\":860:865   */\n      dup2\n        /* \"#utility.yul\":842:866   */\n      tag_95\n      jump\t// in\n    tag_136:\n        /* \"#utility.yul\":835:840   */\n      dup2\n        /* \"#utility.yul\":832:867   */\n      eq\n        /* \"#utility.yul\":822:885   */\n      tag_137\n      jumpi\n        /* \"#utility.yul\":881:882   */\n      0x00\n        /* \"#utility.yul\":878:879   */\n      0x00\n        /* \"#utility.yul\":871:883   */\n      revert\n        /* \"#utility.yul\":822:885   */\n    tag_137:\n        /* \"#utility.yul\":769:891   */\n      pop\n      jump\t// out\n        /* \"#utility.yul\":897:1036   */\n    tag_101:\n        /* \"#utility.yul\":943:948   */\n      0x00\n        /* \"#utility.yul\":981:987   */\n      dup2\n        /* \"#utility.yul\":968:988   */\n      calldataload\n        /* \"#utility.yul\":959:988   */\n      swap1\n      pop\n        /* \"#utility.yul\":997:1030   */\n      tag_139\n        /* \"#utility.yul\":1024:1029   */\n      dup2\n        /* \"#utility.yul\":997:1030   */\n      tag_100\n      jump\t// in\n    tag_139:\n        /* \"#utility.yul\":897:1036   */\n      swap3\n      swap2\n      pop\n      pop\n      jump\t// out\n        /* \"#utility.yul\":1042:1371   */\n    tag_19:\n        /* \"#utility.yul\":1101:1107   */\n      0x00\n        /* \"#utility.yul\":1150:1152   */\n      0x20\n        /* \"#utility.yul\":1138:1147   */\n      dup3\n        /* \"#utility.yul\":1129:1136   */\n      dup5\n        /* \"#utility.yul\":1125:1148   */\n      sub\n        /* \"#utility.yul\":1121:1153   */\n      slt\n        /* \"#utility.yul\":1118:1237   */\n      iszero\n      tag_141\n      jumpi\n        /* \"#utility.yul\":1156:1235   */\n      tag_142\n      tag_98\n      jump\t// in\n    tag_142:\n        /* \"#utility.yul\":1118:1237   */\n    tag_141:\n        /* \"#utility.yul\":1276:1277   */\n      0x00\n        /* \"#utility.yul\":1301:1354   */\n      tag_143\n        /* \"#utility.yul\":1346:1353   */\n      dup5\n        /* \"#utility.yul\":1337:1343   */\n      dup3\n        /* \"#utility.yul\":1326:1335   */\n      dup6\n        /* \"#utility.yul\":1322:1344   */\n      add\n        /* \"#utility.yul\":1301:1354   */\n      tag_101\n      jump\t// in\n    tag_143:\n        /* \"#utility.yul\":1291:1354   */\n      swap2\n      pop\n        /* \"#utility.yul\":1247:1364   */\n      pop\n        /* \"#utility.yul\":1042:1371   */\n      swap3\n      swap2\n      pop\n      pop\n      jump\t// out\n        /* \"#utility.yul\":1377:1503   */\n    tag_102:\n        /* \"#utility.yul\":1414:1421   */\n      0x00\n        /* \"#utility.yul\":1454:1496   */\n      0xffffffffffffffffffffffffffffffffffffffff\n        /* \"#utility.yul\":1447:1452   */\n      dup3\n        /* \"#utility.yul\":1443:1497   */\n      and\n        /* \"#utility.yul\":1432:1497   */\n      swap1\n      pop\n        /* \"#utility.yul\":1377:1503   */\n      swap2\n      swap1\n      pop\n      jump\t// out\n        /* \"#utility.yul\":1509:1605   */\n    tag_103:\n        /* \"#utility.yul\":1546:1553   */\n      0x00\n        /* \"#utility.yul\":1575:1599   */\n      tag_146\n        /* \"#utility.yul\":1593:1598   */\n      dup3\n        /* \"#utility.yul\":1575:1599   */\n      tag_102\n      jump\t// in\n    tag_146:\n        /* \"#utility.yul\":1564:1599   */\n      swap1\n      pop\n        /* \"#utility.yul\":1509:1605   */\n      swap2\n      swap1\n      pop\n      jump\t// out\n        /* \"#utility.yul\":1611:1729   */\n    tag_104:\n        /* \"#utility.yul\":1698:1722   */\n      tag_148\n        /* \"#utility.yul\":1716:1721   */\n      dup2\n        /* \"#utility.yul\":1698:1722   */\n      tag_103\n      jump\t// in\n    tag_148:\n        /* \"#utility.yul\":1693:1696   */\n      dup3\n        /* \"#utility.yul\":1686:1723   */\n      mstore\n        /* \"#utility.yul\":1611:1729   */\n      pop\n      pop\n      jump\t// out\n        /* \"#utility.yul\":1735:1957   */\n    tag_22:\n        /* \"#utility.yul\":1828:1832   */\n      0x00\n        /* \"#utility.yul\":1866:1868   */\n      0x20\n        /* \"#utility.yul\":1855:1864   */\n      dup3\n        /* \"#utility.yul\":1851:1869   */\n      add\n        /* \"#utility.yul\":1843:1869   */\n      swap1\n      pop\n        /* \"#utility.yul\":1879:1950   */\n      tag_150\n        /* \"#utility.yul\":1947:1948   */\n      0x00\n        /* \"#utility.yul\":1936:1945   */\n      dup4\n        /* \"#utility.yul\":1932:1949   */\n      add\n        /* \"#utility.yul\":1923:1929   */\n      dup5\n        /* \"#utility.yul\":1879:1950   */\n      tag_104\n      jump\t// in\n    tag_150:\n        /* \"#utility.yul\":1735:1957   */\n      swap3\n      swap2\n      pop\n      pop\n      jump\t// out\n        /* \"#utility.yul\":1963:2085   */\n    tag_105:\n        /* \"#utility.yul\":2036:2060   */\n      tag_152\n        /* \"#utility.yul\":2054:2059   */\n      dup2\n        /* \"#utility.yul\":2036:2060   */\n      tag_103\n      jump\t// in\n    tag_152:\n        /* \"#utility.yul\":2029:2034   */\n      dup2\n        /* \"#utility.yul\":2026:2061   */\n      eq\n        /* \"#utility.yul\":2016:2079   */\n      tag_153\n      jumpi\n        /* \"#utility.yul\":2075:2076   */\n      0x00\n        /* \"#utility.yul\":2072:2073   */\n      0x00\n        /* \"#utility.yul\":2065:2077   */\n      revert\n        /* \"#utility.yul\":2016:2079   */\n    tag_153:\n        /* \"#utility.yul\":1963:2085   */\n      pop\n      jump\t// out\n        /* \"#utility.yul\":2091:2230   */\n    tag_106:\n        /* \"#utility.yul\":2137:2142   */\n      0x00\n        /* \"#utility.yul\":2175:2181   */\n      dup2\n        /* \"#utility.yul\":2162:2182   */\n      calldataload\n        /* \"#utility.yul\":2153:2182   */\n      swap1\n      pop\n        /* \"#utility.yul\":2191:2224   */\n      tag_155\n        /* \"#utility.yul\":2218:2223   */\n      dup2\n        /* \"#utility.yul\":2191:2224   */\n      tag_105\n      jump\t// in\n    tag_155:\n        /* \"#utility.yul\":2091:2230   */\n      swap3\n      swap2\n      pop\n      pop\n      jump\t// out\n        /* \"#utility.yul\":2236:2565   */\n    tag_30:\n        /* \"#utility.yul\":2295:2301   */\n      0x00\n        /* \"#utility.yul\":2344:2346   */\n      0x20\n        /* \"#utility.yul\":2332:2341   */\n      dup3\n        /* \"#utility.yul\":2323:2330   */\n      dup5\n        /* \"#utility.yul\":2319:2342   */\n      sub\n        /* \"#utility.yul\":2315:2347   */\n      slt\n        /* \"#utility.yul\":2312:2431   */\n      iszero\n      tag_157\n      jumpi\n        /* \"#utility.yul\":2350:2429   */\n      tag_158\n      tag_98\n      jump\t// in\n    tag_158:\n        /* \"#utility.yul\":2312:2431   */\n    tag_157:\n        /* \"#utility.yul\":2470:2471   */\n      0x00\n        /* \"#utility.yul\":2495:2548   */\n      tag_159\n        /* \"#utility.yul\":2540:2547   */\n      dup5\n        /* \"#utility.yul\":2531:2537   */\n      dup3\n        /* \"#utility.yul\":2520:2529   */\n      dup6\n        /* \"#utility.yul\":2516:2538   */\n      add\n        /* \"#utility.yul\":2495:2548   */\n      tag_106\n      jump\t// in\n    tag_159:\n        /* \"#utility.yul\":2485:2548   */\n      swap2\n      pop\n        /* \"#utility.yul\":2441:2558   */\n      pop\n        /* \"#utility.yul\":2236:2565   */\n      swap3\n      swap2\n      pop\n      pop\n      jump\t// out\n        /* \"#utility.yul\":2571:2740   */\n    tag_107:\n        /* \"#utility.yul\":2655:2666   */\n      0x00\n        /* \"#utility.yul\":2689:2695   */\n      dup3\n        /* \"#utility.yul\":2684:2687   */\n      dup3\n        /* \"#utility.yul\":2677:2696   */\n      mstore\n        /* \"#utility.yul\":2729:2733   */\n      0x20\n        /* \"#utility.yul\":2724:2727   */\n      dup3\n        /* \"#utility.yul\":2720:2734   */\n      add\n        /* \"#utility.yul\":2705:2734   */\n      swap1\n      pop\n        /* \"#utility.yul\":2571:2740   */\n      swap3\n      swap2\n      pop\n      pop\n      jump\t// out\n        /* \"#utility.yul\":2746:2909   */\n    tag_108:\n        /* \"#utility.yul\":2886:2901   */\n      0x4d757374206265206f776e657200000000000000000000000000000000000000\n        /* \"#utility.yul\":2882:2883   */\n      0x00\n        /* \"#utility.yul\":2874:2880   */\n      dup3\n        /* \"#utility.yul\":2870:2884   */\n      add\n        /* \"#utility.yul\":2863:2902   */\n      mstore\n        /* \"#utility.yul\":2746:2909   */\n      pop\n      jump\t// out\n        /* \"#utility.yul\":2915:3281   */\n    tag_109:\n        /* \"#utility.yul\":3057:3060   */\n      0x00\n        /* \"#utility.yul\":3078:3145   */\n      tag_163\n        /* \"#utility.yul\":3142:3144   */\n      0x0d\n        /* \"#utility.yul\":3137:3140   */\n      dup4\n        /* \"#utility.yul\":3078:3145   */\n      tag_107\n      jump\t// in\n    tag_163:\n        /* \"#utility.yul\":3071:3145   */\n      swap2\n      pop\n        /* \"#utility.yul\":3154:3247   */\n      tag_164\n        /* \"#utility.yul\":3243:3246   */\n      dup3\n        /* \"#utility.yul\":3154:3247   */\n      tag_108\n      jump\t// in\n    tag_164:\n        /* \"#utility.yul\":3272:3274   */\n      0x20\n        /* \"#utility.yul\":3267:3270   */\n      dup3\n        /* \"#utility.yul\":3263:3275   */\n      add\n        /* \"#utility.yul\":3256:3275   */\n      swap1\n      pop\n        /* \"#utility.yul\":2915:3281   */\n      swap2\n      swap1\n      pop\n      jump\t// out\n        /* \"#utility.yul\":3287:3706   */\n    tag_38:\n        /* \"#utility.yul\":3453:3457   */\n      0x00\n        /* \"#utility.yul\":3491:3493   */\n      0x20\n        /* \"#utility.yul\":3480:3489   */\n      dup3\n        /* \"#utility.yul\":3476:3494   */\n      add\n        /* \"#utility.yul\":3468:3494   */\n      swap1\n      pop\n        /* \"#utility.yul\":3540:3549   */\n      dup2\n        /* \"#utility.yul\":3534:3538   */\n      dup2\n        /* \"#utility.yul\":3530:3550   */\n      sub\n        /* \"#utility.yul\":3526:3527   */\n      0x00\n        /* \"#utility.yul\":3515:3524   */\n      dup4\n        /* \"#utility.yul\":3511:3528   */\n      add\n        /* \"#utility.yul\":3504:3551   */\n      mstore\n        /* \"#utility.yul\":3568:3699   */\n      tag_166\n        /* \"#utility.yul\":3694:3698   */\n      dup2\n        /* \"#utility.yul\":3568:3699   */\n      tag_109\n      jump\t// in\n    tag_166:\n        /* \"#utility.yul\":3560:3699   */\n      swap1\n      pop\n        /* \"#utility.yul\":3287:3706   */\n      swap2\n      swap1\n      pop\n      jump\t// out\n        /* \"#utility.yul\":3712:3892   */\n    tag_47:\n        /* \"#utility.yul\":3760:3837   */\n      0x4e487b7100000000000000000000000000000000000000000000000000000000\n        /* \"#utility.yul\":3757:3758   */\n      0x00\n        /* \"#utility.yul\":3750:3838   */\n      mstore\n        /* \"#utility.yul\":3857:3861   */\n      0x32\n        /* \"#utility.yul\":3854:3855   */\n      0x04\n        /* \"#utility.yul\":3847:3862   */\n      mstore\n        /* \"#utility.yul\":3881:3885   */\n      0x24\n        /* \"#utility.yul\":3878:3879   */\n      0x00\n        /* \"#utility.yul\":3871:3886   */\n      revert\n        /* \"#utility.yul\":3898:4078   */\n    tag_51:\n        /* \"#utility.yul\":3946:4023   */\n      0x4e487b7100000000000000000000000000000000000000000000000000000000\n        /* \"#utility.yul\":3943:3944   */\n      0x00\n        /* \"#utility.yul\":3936:4024   */\n      mstore\n        /* \"#utility.yul\":4043:4047   */\n      0x41\n        /* \"#utility.yul\":4040:4041   */\n      0x04\n        /* \"#utility.yul\":4033:4048   */\n      mstore\n        /* \"#utility.yul\":4067:4071   */\n      0x24\n        /* \"#utility.yul\":4064:4065   */\n      0x00\n        /* \"#utility.yul\":4057:4072   */\n      revert\n        /* \"#utility.yul\":4084:4231   */\n    tag_110:\n        /* \"#utility.yul\":4185:4196   */\n      0x00\n        /* \"#utility.yul\":4222:4225   */\n      dup2\n        /* \"#utility.yul\":4207:4225   */\n      swap1\n      pop\n        /* \"#utility.yul\":4084:4231   */\n      swap3\n      swap2\n      pop\n      pop\n      jump\t// out\n        /* \"#utility.yul\":4237:4351   */\n    tag_111:\n      pop\n      jump\t// out\n        /* \"#utility.yul\":4357:4755   */\n    tag_112:\n        /* \"#utility.yul\":4516:4519   */\n      0x00\n        /* \"#utility.yul\":4537:4620   */\n      tag_172\n        /* \"#utility.yul\":4618:4619   */\n      0x00\n        /* \"#utility.yul\":4613:4616   */\n      dup4\n        /* \"#utility.yul\":4537:4620   */\n      tag_110\n      jump\t// in\n    tag_172:\n        /* \"#utility.yul\":4530:4620   */\n      swap2\n      pop\n        /* \"#utility.yul\":4629:4722   */\n      tag_173\n        /* \"#utility.yul\":4718:4721   */\n      dup3\n        /* \"#utility.yul\":4629:4722   */\n      tag_111\n      jump\t// in\n    tag_173:\n        /* \"#utility.yul\":4747:4748   */\n      0x00\n        /* \"#utility.yul\":4742:4745   */\n      dup3\n        /* \"#utility.yul\":4738:4749   */\n      add\n        /* \"#utility.yul\":4731:4749   */\n      swap1\n      pop\n        /* \"#utility.yul\":4357:4755   */\n      swap2\n      swap1\n      pop\n      jump\t// out\n        /* \"#utility.yul\":4761:5140   */\n    tag_56:\n        /* \"#utility.yul\":4945:4948   */\n      0x00\n        /* \"#utility.yul\":4967:5114   */\n      tag_175\n        /* \"#utility.yul\":5110:5113   */\n      dup3\n        /* \"#utility.yul\":4967:5114   */\n      tag_112\n      jump\t// in\n    tag_175:\n        /* \"#utility.yul\":4960:5114   */\n      swap2\n      pop\n        /* \"#utility.yul\":5131:5134   */\n      dup2\n        /* \"#utility.yul\":5124:5134   */\n      swap1\n      pop\n        /* \"#utility.yul\":4761:5140   */\n      swap2\n      swap1\n      pop\n      jump\t// out\n        /* \"#utility.yul\":5146:5307   */\n    tag_113:\n        /* \"#utility.yul\":5286:5299   */\n      0x43616c6c204661696c6564000000000000000000000000000000000000000000\n        /* \"#utility.yul\":5282:5283   */\n      0x00\n        /* \"#utility.yul\":5274:5280   */\n      dup3\n        /* \"#utility.yul\":5270:5284   */\n      add\n        /* \"#utility.yul\":5263:5300   */\n      mstore\n        /* \"#utility.yul\":5146:5307   */\n      pop\n      jump\t// out\n        /* \"#utility.yul\":5313:5679   */\n    tag_114:\n        /* \"#utility.yul\":5455:5458   */\n      0x00\n        /* \"#utility.yul\":5476:5543   */\n      tag_178\n        /* \"#utility.yul\":5540:5542   */\n      0x0b\n        /* \"#utility.yul\":5535:5538   */\n      dup4\n        /* \"#utility.yul\":5476:5543   */\n      tag_107\n      jump\t// in\n    tag_178:\n        /* \"#utility.yul\":5469:5543   */\n      swap2\n      pop\n        /* \"#utility.yul\":5552:5645   */\n      tag_179\n        /* \"#utility.yul\":5641:5644   */\n      dup3\n        /* \"#utility.yul\":5552:5645   */\n      tag_113\n      jump\t// in\n    tag_179:\n        /* \"#utility.yul\":5670:5672   */\n      0x20\n        /* \"#utility.yul\":5665:5668   */\n      dup3\n        /* \"#utility.yul\":5661:5673   */\n      add\n        /* \"#utility.yul\":5654:5673   */\n      swap1\n      pop\n        /* \"#utility.yul\":5313:5679   */\n      swap2\n      swap1\n      pop\n      jump\t// out\n        /* \"#utility.yul\":5685:6104   */\n    tag_62:\n        /* \"#utility.yul\":5851:5855   */\n      0x00\n        /* \"#utility.yul\":5889:5891   */\n      0x20\n        /* \"#utility.yul\":5878:5887   */\n      dup3\n        /* \"#utility.yul\":5874:5892   */\n      add\n        /* \"#utility.yul\":5866:5892   */\n      swap1\n      pop\n        /* \"#utility.yul\":5938:5947   */\n      dup2\n        /* \"#utility.yul\":5932:5936   */\n      dup2\n        /* \"#utility.yul\":5928:5948   */\n      sub\n        /* \"#utility.yul\":5924:5925   */\n      0x00\n        /* \"#utility.yul\":5913:5922   */\n      dup4\n        /* \"#utility.yul\":5909:5926   */\n      add\n        /* \"#utility.yul\":5902:5949   */\n      mstore\n        /* \"#utility.yul\":5966:6097   */\n      tag_181\n        /* \"#utility.yul\":6092:6096   */\n      dup2\n        /* \"#utility.yul\":5966:6097   */\n      tag_114\n      jump\t// in\n    tag_181:\n        /* \"#utility.yul\":5958:6097   */\n      swap1\n      pop\n        /* \"#utility.yul\":5685:6104   */\n      swap2\n      swap1\n      pop\n      jump\t// out\n        /* \"#utility.yul\":6110:6282   */\n    tag_115:\n        /* \"#utility.yul\":6250:6274   */\n      0x4469646e27742073656e6420656e6f7567682045544800000000000000000000\n        /* \"#utility.yul\":6246:6247   */\n      0x00\n        /* \"#utility.yul\":6238:6244   */\n      dup3\n        /* \"#utility.yul\":6234:6248   */\n      add\n        /* \"#utility.yul\":6227:6275   */\n      mstore\n        /* \"#utility.yul\":6110:6282   */\n      pop\n      jump\t// out\n        /* \"#utility.yul\":6288:6654   */\n    tag_116:\n        /* \"#utility.yul\":6430:6433   */\n      0x00\n        /* \"#utility.yul\":6451:6518   */\n      tag_184\n        /* \"#utility.yul\":6515:6517   */\n      0x16\n        /* \"#utility.yul\":6510:6513   */\n      dup4\n        /* \"#utility.yul\":6451:6518   */\n      tag_107\n      jump\t// in\n    tag_184:\n        /* \"#utility.yul\":6444:6518   */\n      swap2\n      pop\n        /* \"#utility.yul\":6527:6620   */\n      tag_185\n        /* \"#utility.yul\":6616:6619   */\n      dup3\n        /* \"#utility.yul\":6527:6620   */\n      tag_115\n      jump\t// in\n    tag_185:\n        /* \"#utility.yul\":6645:6647   */\n      0x20\n        /* \"#utility.yul\":6640:6643   */\n      dup3\n        /* \"#utility.yul\":6636:6648   */\n      add\n        /* \"#utility.yul\":6629:6648   */\n      swap1\n      pop\n        /* \"#utility.yul\":6288:6654   */\n      swap2\n      swap1\n      pop\n      jump\t// out\n        /* \"#utility.yul\":6660:7079   */\n    tag_70:\n        /* \"#utility.yul\":6826:6830   */\n      0x00\n        /* \"#utility.yul\":6864:6866   */\n      0x20\n        /* \"#utility.yul\":6853:6862   */\n      dup3\n        /* \"#utility.yul\":6849:6867   */\n      add\n        /* \"#utility.yul\":6841:6867   */\n      swap1\n      pop\n        /* \"#utility.yul\":6913:6922   */\n      dup2\n        /* \"#utility.yul\":6907:6911   */\n      dup2\n        /* \"#utility.yul\":6903:6923   */\n      sub\n        /* \"#utility.yul\":6899:6900   */\n      0x00\n        /* \"#utility.yul\":6888:6897   */\n      dup4\n        /* \"#utility.yul\":6884:6901   */\n      add\n        /* \"#utility.yul\":6877:6924   */\n      mstore\n        /* \"#utility.yul\":6941:7072   */\n      tag_187\n        /* \"#utility.yul\":7067:7071   */\n      dup2\n        /* \"#utility.yul\":6941:7072   */\n      tag_116\n      jump\t// in\n    tag_187:\n        /* \"#utility.yul\":6933:7072   */\n      swap1\n      pop\n        /* \"#utility.yul\":6660:7079   */\n      swap2\n      swap1\n      pop\n      jump\t// out\n        /* \"#utility.yul\":7085:7265   */\n    tag_117:\n        /* \"#utility.yul\":7133:7210   */\n      0x4e487b7100000000000000000000000000000000000000000000000000000000\n        /* \"#utility.yul\":7130:7131   */\n      0x00\n        /* \"#utility.yul\":7123:7211   */\n      mstore\n        /* \"#utility.yul\":7230:7234   */\n      0x11\n        /* \"#utility.yul\":7227:7228   */\n      0x04\n        /* \"#utility.yul\":7220:7235   */\n      mstore\n        /* \"#utility.yul\":7254:7258   */\n      0x24\n        /* \"#utility.yul\":7251:7252   */\n      0x00\n        /* \"#utility.yul\":7244:7259   */\n      revert\n        /* \"#utility.yul\":7271:7462   */\n    tag_73:\n        /* \"#utility.yul\":7311:7314   */\n      0x00\n        /* \"#utility.yul\":7330:7350   */\n      tag_190\n        /* \"#utility.yul\":7348:7349   */\n      dup3\n        /* \"#utility.yul\":7330:7350   */\n      tag_95\n      jump\t// in\n    tag_190:\n        /* \"#utility.yul\":7325:7350   */\n      swap2\n      pop\n        /* \"#utility.yul\":7364:7384   */\n      tag_191\n        /* \"#utility.yul\":7382:7383   */\n      dup4\n        /* \"#utility.yul\":7364:7384   */\n      tag_95\n      jump\t// in\n    tag_191:\n        /* \"#utility.yul\":7359:7384   */\n      swap3\n      pop\n        /* \"#utility.yul\":7407:7408   */\n      dup3\n        /* \"#utility.yul\":7404:7405   */\n      dup3\n        /* \"#utility.yul\":7400:7409   */\n      add\n        /* \"#utility.yul\":7393:7409   */\n      swap1\n      pop\n        /* \"#utility.yul\":7428:7431   */\n      dup1\n        /* \"#utility.yul\":7425:7426   */\n      dup3\n        /* \"#utility.yul\":7422:7432   */\n      gt\n        /* \"#utility.yul\":7419:7455   */\n      iszero\n      tag_192\n      jumpi\n        /* \"#utility.yul\":7435:7453   */\n      tag_193\n      tag_117\n      jump\t// in\n    tag_193:\n        /* \"#utility.yul\":7419:7455   */\n    tag_192:\n        /* \"#utility.yul\":7271:7462   */\n      swap3\n      swap2\n      pop\n      pop\n      jump\t// out\n        /* \"#utility.yul\":7468:7878   */\n    tag_78:\n        /* \"#utility.yul\":7508:7515   */\n      0x00\n        /* \"#utility.yul\":7531:7551   */\n      tag_195\n        /* \"#utility.yul\":7549:7550   */\n      dup3\n        /* \"#utility.yul\":7531:7551   */\n      tag_95\n      jump\t// in\n    tag_195:\n        /* \"#utility.yul\":7526:7551   */\n      swap2\n      pop\n        /* \"#utility.yul\":7565:7585   */\n      tag_196\n        /* \"#utility.yul\":7583:7584   */\n      dup4\n        /* \"#utility.yul\":7565:7585   */\n      tag_95\n      jump\t// in\n    tag_196:\n        /* \"#utility.yul\":7560:7585   */\n      swap3\n      pop\n        /* \"#utility.yul\":7620:7621   */\n      dup3\n        /* \"#utility.yul\":7617:7618   */\n      dup3\n        /* \"#utility.yul\":7613:7622   */\n      mul\n        /* \"#utility.yul\":7642:7672   */\n      tag_197\n        /* \"#utility.yul\":7660:7671   */\n      dup2\n        /* \"#utility.yul\":7642:7672   */\n      tag_95\n      jump\t// in\n    tag_197:\n        /* \"#utility.yul\":7631:7672   */\n      swap2\n      pop\n        /* \"#utility.yul\":7821:7822   */\n      dup3\n        /* \"#utility.yul\":7812:7819   */\n      dup3\n        /* \"#utility.yul\":7808:7823   */\n      div\n        /* \"#utility.yul\":7805:7806   */\n      dup5\n        /* \"#utility.yul\":7802:7824   */\n      eq\n        /* \"#utility.yul\":7782:7783   */\n      dup4\n        /* \"#utility.yul\":7775:7784   */\n      iszero\n        /* \"#utility.yul\":7755:7838   */\n      or\n        /* \"#utility.yul\":7732:7871   */\n      tag_198\n      jumpi\n        /* \"#utility.yul\":7851:7869   */\n      tag_199\n      tag_117\n      jump\t// in\n    tag_199:\n        /* \"#utility.yul\":7732:7871   */\n    tag_198:\n        /* \"#utility.yul\":7516:7878   */\n      pop\n        /* \"#utility.yul\":7468:7878   */\n      swap3\n      swap2\n      pop\n      pop\n      jump\t// out\n        /* \"#utility.yul\":7884:8064   */\n    tag_118:\n        /* \"#utility.yul\":7932:8009   */\n      0x4e487b7100000000000000000000000000000000000000000000000000000000\n        /* \"#utility.yul\":7929:7930   */\n      0x00\n        /* \"#utility.yul\":7922:8010   */\n      mstore\n        /* \"#utility.yul\":8029:8033   */\n      0x12\n        /* \"#utility.yul\":8026:8027   */\n      0x04\n        /* \"#utility.yul\":8019:8034   */\n      mstore\n        /* \"#utility.yul\":8053:8057   */\n      0x24\n        /* \"#utility.yul\":8050:8051   */\n      0x00\n        /* \"#utility.yul\":8043:8058   */\n      revert\n        /* \"#utility.yul\":8070:8255   */\n    tag_80:\n        /* \"#utility.yul\":8110:8111   */\n      0x00\n        /* \"#utility.yul\":8127:8147   */\n      tag_202\n        /* \"#utility.yul\":8145:8146   */\n      dup3\n        /* \"#utility.yul\":8127:8147   */\n      tag_95\n      jump\t// in\n    tag_202:\n        /* \"#utility.yul\":8122:8147   */\n      swap2\n      pop\n        /* \"#utility.yul\":8161:8181   */\n      tag_203\n        /* \"#utility.yul\":8179:8180   */\n      dup4\n        /* \"#utility.yul\":8161:8181   */\n      tag_95\n      jump\t// in\n    tag_203:\n        /* \"#utility.yul\":8156:8181   */\n      swap3\n      pop\n        /* \"#utility.yul\":8200:8201   */\n      dup3\n        /* \"#utility.yul\":8190:8225   */\n      tag_204\n      jumpi\n        /* \"#utility.yul\":8205:8223   */\n      tag_205\n      tag_118\n      jump\t// in\n    tag_205:\n        /* \"#utility.yul\":8190:8225   */\n    tag_204:\n        /* \"#utility.yul\":8247:8248   */\n      dup3\n        /* \"#utility.yul\":8244:8245   */\n      dup3\n        /* \"#utility.yul\":8240:8249   */\n      div\n        /* \"#utility.yul\":8235:8249   */\n      swap1\n      pop\n        /* \"#utility.yul\":8070:8255   */\n      swap3\n      swap2\n      pop\n      pop\n      jump\t// out\n        /* \"#utility.yul\":8261:8366   */\n    tag_119:\n        /* \"#utility.yul\":8297:8304   */\n      0x00\n        /* \"#utility.yul\":8337:8359   */\n      0xffffffffffffffffffff\n        /* \"#utility.yul\":8330:8335   */\n      dup3\n        /* \"#utility.yul\":8326:8360   */\n      and\n        /* \"#utility.yul\":8315:8360   */\n      swap1\n      pop\n        /* \"#utility.yul\":8261:8366   */\n      swap2\n      swap1\n      pop\n      jump\t// out\n        /* \"#utility.yul\":8372:8492   */\n    tag_120:\n        /* \"#utility.yul\":8444:8467   */\n      tag_208\n        /* \"#utility.yul\":8461:8466   */\n      dup2\n        /* \"#utility.yul\":8444:8467   */\n      tag_119\n      jump\t// in\n    tag_208:\n        /* \"#utility.yul\":8437:8442   */\n      dup2\n        /* \"#utility.yul\":8434:8468   */\n      eq\n        /* \"#utility.yul\":8424:8486   */\n      tag_209\n      jumpi\n        /* \"#utility.yul\":8482:8483   */\n      0x00\n        /* \"#utility.yul\":8479:8480   */\n      0x00\n        /* \"#utility.yul\":8472:8484   */\n      revert\n        /* \"#utility.yul\":8424:8486   */\n    tag_209:\n        /* \"#utility.yul\":8372:8492   */\n      pop\n      jump\t// out\n        /* \"#utility.yul\":8498:8639   */\n    tag_121:\n        /* \"#utility.yul\":8554:8559   */\n      0x00\n        /* \"#utility.yul\":8585:8591   */\n      dup2\n        /* \"#utility.yul\":8579:8592   */\n      mload\n        /* \"#utility.yul\":8570:8592   */\n      swap1\n      pop\n        /* \"#utility.yul\":8601:8633   */\n      tag_211\n        /* \"#utility.yul\":8627:8632   */\n      dup2\n        /* \"#utility.yul\":8601:8633   */\n      tag_120\n      jump\t// in\n    tag_211:\n        /* \"#utility.yul\":8498:8639   */\n      swap3\n      swap2\n      pop\n      pop\n      jump\t// out\n        /* \"#utility.yul\":8645:8721   */\n    tag_122:\n        /* \"#utility.yul\":8681:8688   */\n      0x00\n        /* \"#utility.yul\":8710:8715   */\n      dup2\n        /* \"#utility.yul\":8699:8715   */\n      swap1\n      pop\n        /* \"#utility.yul\":8645:8721   */\n      swap2\n      swap1\n      pop\n      jump\t// out\n        /* \"#utility.yul\":8727:8847   */\n    tag_123:\n        /* \"#utility.yul\":8799:8822   */\n      tag_214\n        /* \"#utility.yul\":8816:8821   */\n      dup2\n        /* \"#utility.yul\":8799:8822   */\n      tag_122\n      jump\t// in\n    tag_214:\n        /* \"#utility.yul\":8792:8797   */\n      dup2\n        /* \"#utility.yul\":8789:8823   */\n      eq\n        /* \"#utility.yul\":8779:8841   */\n      tag_215\n      jumpi\n        /* \"#utility.yul\":8837:8838   */\n      0x00\n        /* \"#utility.yul\":8834:8835   */\n      0x00\n        /* \"#utility.yul\":8827:8839   */\n      revert\n        /* \"#utility.yul\":8779:8841   */\n    tag_215:\n        /* \"#utility.yul\":8727:8847   */\n      pop\n      jump\t// out\n        /* \"#utility.yul\":8853:8994   */\n    tag_124:\n        /* \"#utility.yul\":8909:8914   */\n      0x00\n        /* \"#utility.yul\":8940:8946   */\n      dup2\n        /* \"#utility.yul\":8934:8947   */\n      mload\n        /* \"#utility.yul\":8925:8947   */\n      swap1\n      pop\n        /* \"#utility.yul\":8956:8988   */\n      tag_217\n        /* \"#utility.yul\":8982:8987   */\n      dup2\n        /* \"#utility.yul\":8956:8988   */\n      tag_123\n      jump\t// in\n    tag_217:\n        /* \"#utility.yul\":8853:8994   */\n      swap3\n      swap2\n      pop\n      pop\n      jump\t// out\n        /* \"#utility.yul\":9000:9143   */\n    tag_125:\n        /* \"#utility.yul\":9057:9062   */\n      0x00\n        /* \"#utility.yul\":9088:9094   */\n      dup2\n        /* \"#utility.yul\":9082:9095   */\n      mload\n        /* \"#utility.yul\":9073:9095   */\n      swap1\n      pop\n        /* \"#utility.yul\":9104:9137   */\n      tag_219\n        /* \"#utility.yul\":9131:9136   */\n      dup2\n        /* \"#utility.yul\":9104:9137   */\n      tag_100\n      jump\t// in\n    tag_219:\n        /* \"#utility.yul\":9000:9143   */\n      swap3\n      swap2\n      pop\n      pop\n      jump\t// out\n        /* \"#utility.yul\":9149:10120   */\n    tag_85:\n        /* \"#utility.yul\":9252:9258   */\n      0x00\n        /* \"#utility.yul\":9260:9266   */\n      0x00\n        /* \"#utility.yul\":9268:9274   */\n      0x00\n        /* \"#utility.yul\":9276:9282   */\n      0x00\n        /* \"#utility.yul\":9284:9290   */\n      0x00\n        /* \"#utility.yul\":9333:9336   */\n      0xa0\n        /* \"#utility.yul\":9321:9330   */\n      dup7\n        /* \"#utility.yul\":9312:9319   */\n      dup9\n        /* \"#utility.yul\":9308:9331   */\n      sub\n        /* \"#utility.yul\":9304:9337   */\n      slt\n        /* \"#utility.yul\":9301:9421   */\n      iszero\n      tag_221\n      jumpi\n        /* \"#utility.yul\":9340:9419   */\n      tag_222\n      tag_98\n      jump\t// in\n    tag_222:\n        /* \"#utility.yul\":9301:9421   */\n    tag_221:\n        /* \"#utility.yul\":9460:9461   */\n      0x00\n        /* \"#utility.yul\":9485:9548   */\n      tag_223\n        /* \"#utility.yul\":9540:9547   */\n      dup9\n        /* \"#utility.yul\":9531:9537   */\n      dup3\n        /* \"#utility.yul\":9520:9529   */\n      dup10\n        /* \"#utility.yul\":9516:9538   */\n      add\n        /* \"#utility.yul\":9485:9548   */\n      tag_121\n      jump\t// in\n    tag_223:\n        /* \"#utility.yul\":9475:9548   */\n      swap6\n      pop\n        /* \"#utility.yul\":9431:9558   */\n      pop\n        /* \"#utility.yul\":9597:9599   */\n      0x20\n        /* \"#utility.yul\":9623:9686   */\n      tag_224\n        /* \"#utility.yul\":9678:9685   */\n      dup9\n        /* \"#utility.yul\":9669:9675   */\n      dup3\n        /* \"#utility.yul\":9658:9667   */\n      dup10\n        /* \"#utility.yul\":9654:9676   */\n      add\n        /* \"#utility.yul\":9623:9686   */\n      tag_124\n      jump\t// in\n    tag_224:\n        /* \"#utility.yul\":9613:9686   */\n      swap5\n      pop\n        /* \"#utility.yul\":9568:9696   */\n      pop\n        /* \"#utility.yul\":9735:9737   */\n      0x40\n        /* \"#utility.yul\":9761:9825   */\n      tag_225\n        /* \"#utility.yul\":9817:9824   */\n      dup9\n        /* \"#utility.yul\":9808:9814   */\n      dup3\n        /* \"#utility.yul\":9797:9806   */\n      dup10\n        /* \"#utility.yul\":9793:9815   */\n      add\n        /* \"#utility.yul\":9761:9825   */\n      tag_125\n      jump\t// in\n    tag_225:\n        /* \"#utility.yul\":9751:9825   */\n      swap4\n      pop\n        /* \"#utility.yul\":9706:9835   */\n      pop\n        /* \"#utility.yul\":9874:9876   */\n      0x60\n        /* \"#utility.yul\":9900:9964   */\n      tag_226\n        /* \"#utility.yul\":9956:9963   */\n      dup9\n        /* \"#utility.yul\":9947:9953   */\n      dup3\n        /* \"#utility.yul\":9936:9945   */\n      dup10\n        /* \"#utility.yul\":9932:9954   */\n      add\n        /* \"#utility.yul\":9900:9964   */\n      tag_125\n      jump\t// in\n    tag_226:\n        /* \"#utility.yul\":9890:9964   */\n      swap3\n      pop\n        /* \"#utility.yul\":9845:9974   */\n      pop\n        /* \"#utility.yul\":10013:10016   */\n      0x80\n        /* \"#utility.yul\":10040:10103   */\n      tag_227\n        /* \"#utility.yul\":10095:10102   */\n      dup9\n        /* \"#utility.yul\":10086:10092   */\n      dup3\n        /* \"#utility.yul\":10075:10084   */\n      dup10\n        /* \"#utility.yul\":10071:10093   */\n      add\n        /* \"#utility.yul\":10040:10103   */\n      tag_121\n      jump\t// in\n    tag_227:\n        /* \"#utility.yul\":10030:10103   */\n      swap2\n      pop\n        /* \"#utility.yul\":9984:10113   */\n      pop\n        /* \"#utility.yul\":9149:10120   */\n      swap3\n      swap6\n      pop\n      swap3\n      swap6\n      swap1\n      swap4\n      pop\n      jump\t// out\n        /* \"#utility.yul\":10126:10682   */\n    tag_87:\n        /* \"#utility.yul\":10165:10172   */\n      0x00\n        /* \"#utility.yul\":10188:10207   */\n      tag_229\n        /* \"#utility.yul\":10205:10206   */\n      dup3\n        /* \"#utility.yul\":10188:10207   */\n      tag_122\n      jump\t// in\n    tag_229:\n        /* \"#utility.yul\":10183:10207   */\n      swap2\n      pop\n        /* \"#utility.yul\":10221:10240   */\n      tag_230\n        /* \"#utility.yul\":10238:10239   */\n      dup4\n        /* \"#utility.yul\":10221:10240   */\n      tag_122\n      jump\t// in\n    tag_230:\n        /* \"#utility.yul\":10216:10240   */\n      swap3\n      pop\n        /* \"#utility.yul\":10275:10276   */\n      dup3\n        /* \"#utility.yul\":10272:10273   */\n      dup3\n        /* \"#utility.yul\":10268:10277   */\n      mul\n        /* \"#utility.yul\":10297:10326   */\n      tag_231\n        /* \"#utility.yul\":10314:10325   */\n      dup2\n        /* \"#utility.yul\":10297:10326   */\n      tag_122\n      jump\t// in\n    tag_231:\n        /* \"#utility.yul\":10286:10326   */\n      swap2\n      pop\n        /* \"#utility.yul\":10384:10450   */\n      0x8000000000000000000000000000000000000000000000000000000000000000\n        /* \"#utility.yul\":10381:10382   */\n      dup5\n        /* \"#utility.yul\":10378:10451   */\n      eq\n        /* \"#utility.yul\":10374:10375   */\n      0x00\n        /* \"#utility.yul\":10371:10372   */\n      dup5\n        /* \"#utility.yul\":10367:10376   */\n      slt\n        /* \"#utility.yul\":10363:10452   */\n      and\n        /* \"#utility.yul\":10360:10475   */\n      iszero\n      tag_232\n      jumpi\n        /* \"#utility.yul\":10455:10473   */\n      tag_233\n      tag_117\n      jump\t// in\n    tag_233:\n        /* \"#utility.yul\":10360:10475   */\n    tag_232:\n        /* \"#utility.yul\":10625:10626   */\n      dup3\n        /* \"#utility.yul\":10616:10623   */\n      dup3\n        /* \"#utility.yul\":10611:10627   */\n      sdiv\n        /* \"#utility.yul\":10608:10609   */\n      dup5\n        /* \"#utility.yul\":10605:10628   */\n      eq\n        /* \"#utility.yul\":10585:10586   */\n      dup4\n        /* \"#utility.yul\":10578:10587   */\n      iszero\n        /* \"#utility.yul\":10558:10642   */\n      or\n        /* \"#utility.yul\":10535:10675   */\n      tag_234\n      jumpi\n        /* \"#utility.yul\":10655:10673   */\n      tag_235\n      tag_117\n      jump\t// in\n    tag_235:\n        /* \"#utility.yul\":10535:10675   */\n    tag_234:\n        /* \"#utility.yul\":10173:10682   */\n      pop\n        /* \"#utility.yul\":10126:10682   */\n      swap3\n      swap2\n      pop\n      pop\n      jump\t// out\n\n    auxdata: 0xa2646970667358221220f1d4575dad2822391749e64744f3ed18f77b18bc701bdbd7e436c1f49aaa962964736f6c634300081c0033\n}\n",
				"bytecode": {
					"linkReferences": {},
					"object": "6080604052674563918244f400005f553480156019575f5ffd5b503360035f6101000a81548173ffffffffffffffffffffffffffffffffffffffff021916908373ffffffffffffffffffffffffffffffffffffffff160217905550610d00806100675f395ff3fe608060405260043610610054575f3560e01c80633430a88c146100585780633ccfd60b1461008257806380da04da146100985780638da5cb5b146100d4578063b12b0b2b146100fe578063b60d42881461013a575b5f5ffd5b348015610063575f5ffd5b5061006c610144565b6040516100799190610757565b60405180910390f35b34801561008d575f5ffd5b50610096610149565b005b3480156100a3575f5ffd5b506100be60048036038101906100b9919061079e565b610413565b6040516100cb9190610808565b60405180910390f35b3480156100df575f5ffd5b506100e861044e565b6040516100f59190610808565b60405180910390f35b348015610109575f5ffd5b50610124600480360381019061011f919061084b565b610473565b6040516101319190610757565b60405180910390f35b610142610488565b005b5f5481565b60035f9054906101000a900473ffffffffffffffffffffffffffffffffffffffff1673ffffffffffffffffffffffffffffffffffffffff163373ffffffffffffffffffffffffffffffffffffffff16146101d8576040517f08c379a00000000000000000000000000000000000000000000000000000000081526004016101cf906108d0565b60405180910390fd5b60035f9054906101000a900473ffffffffffffffffffffffffffffffffffffffff1673ffffffffffffffffffffffffffffffffffffffff163373ffffffffffffffffffffffffffffffffffffffff1614610267576040517f08c379a000000000000000000000000000000000000000000000000000000000815260040161025e906108d0565b60405180910390fd5b5f5f90505b600180549050811015610308575f6001828154811061028e5761028d6108ee565b5b905f5260205f20015f9054906101000a900473ffffffffffffffffffffffffffffffffffffffff1690505f60025f8373ffffffffffffffffffffffffffffffffffffffff1673ffffffffffffffffffffffffffffffffffffffff1681526020019081526020015f208190555050808060010191505061026c565b505f67ffffffffffffffff8111156103235761032261091b565b5b6040519080825280602002602001820160405280156103515781602001602082028036833780820191505090505b506001908051906020019061036792919061069d565b505f3373ffffffffffffffffffffffffffffffffffffffff164760405161038d90610975565b5f6040518083038185875af1925050503d805f81146103c7576040519150601f19603f3d011682016040523d82523d5f602084013e6103cc565b606091505b5050905080610410576040517f08c379a0000000000000000000000000000000000000000000000000000000008152600401610407906109d3565b60405180910390fd5b50565b60018181548110610422575f80fd5b905f5260205f20015f915054906101000a900473ffffffffffffffffffffffffffffffffffffffff1681565b60035f9054906101000a900473ffffffffffffffffffffffffffffffffffffffff1681565b6002602052805f5260405f205f915090505481565b5f54610493346105c0565b10156104d4576040517f08c379a00000000000000000000000000000000000000000000000000000000081526004016104cb90610a3b565b60405180910390fd5b600133908060018154018082558091505060019003905f5260205f20015f9091909190916101000a81548173ffffffffffffffffffffffffffffffffffffffff021916908373ffffffffffffffffffffffffffffffffffffffff1602179055503460025f3373ffffffffffffffffffffffffffffffffffffffff1673ffffffffffffffffffffffffffffffffffffffff1681526020019081526020015f205461057d9190610a86565b60025f3373ffffffffffffffffffffffffffffffffffffffff1673ffffffffffffffffffffffffffffffffffffffff1681526020019081526020015f2081905550565b5f5f6105ca6105f8565b90505f670de0b6b3a764000084836105e29190610ab9565b6105ec9190610b27565b90508092505050919050565b5f5f73694aa1769357215de4fac081bf1f309adc32530690505f8173ffffffffffffffffffffffffffffffffffffffff1663feaf968c6040518163ffffffff1660e01b815260040160a060405180830381865afa15801561065b573d5f5f3e3d5ffd5b505050506040513d601f19601f8201168201806040525081019061067f9190610bdd565b5050509150506402540be400816106969190610c54565b9250505090565b828054828255905f5260205f20908101928215610713579160200282015b82811115610712578251825f6101000a81548173ffffffffffffffffffffffffffffffffffffffff021916908373ffffffffffffffffffffffffffffffffffffffff160217905550916020019190600101906106bb565b5b5090506107209190610724565b5090565b5b8082111561073b575f815f905550600101610725565b5090565b5f819050919050565b6107518161073f565b82525050565b5f60208201905061076a5f830184610748565b92915050565b5f5ffd5b61077d8161073f565b8114610787575f5ffd5b50565b5f8135905061079881610774565b92915050565b5f602082840312156107b3576107b2610770565b5b5f6107c08482850161078a565b91505092915050565b5f73ffffffffffffffffffffffffffffffffffffffff82169050919050565b5f6107f2826107c9565b9050919050565b610802816107e8565b82525050565b5f60208201905061081b5f8301846107f9565b92915050565b61082a816107e8565b8114610834575f5ffd5b50565b5f8135905061084581610821565b92915050565b5f602082840312156108605761085f610770565b5b5f61086d84828501610837565b91505092915050565b5f82825260208201905092915050565b7f4d757374206265206f776e6572000000000000000000000000000000000000005f82015250565b5f6108ba600d83610876565b91506108c582610886565b602082019050919050565b5f6020820190508181035f8301526108e7816108ae565b9050919050565b7f4e487b71000000000000000000000000000000000000000000000000000000005f52603260045260245ffd5b7f4e487b71000000000000000000000000000000000000000000000000000000005f52604160045260245ffd5b5f81905092915050565b50565b5f6109605f83610948565b915061096b82610952565b5f82019050919050565b5f61097f82610955565b9150819050919050565b7f43616c6c204661696c65640000000000000000000000000000000000000000005f82015250565b5f6109bd600b83610876565b91506109c882610989565b602082019050919050565b5f6020820190508181035f8301526109ea816109b1565b9050919050565b7f4469646e27742073656e6420656e6f75676820455448000000000000000000005f82015250565b5f610a25601683610876565b9150610a30826109f1565b602082019050919050565b5f6020820190508181035f830152610a5281610a19565b9050919050565b7f4e487b71000000000000000000000000000000000000000000000000000000005f52601160045260245ffd5b5f610a908261073f565b9150610a9b8361073f565b9250828201905080821115610ab357610ab2610a59565b5b92915050565b5f610ac38261073f565b9150610ace8361073f565b9250828202610adc8161073f565b91508282048414831517610af357610af2610a59565b5b5092915050565b7f4e487b71000000000000000000000000000000000000000000000000000000005f52601260045260245ffd5b5f610b318261073f565b9150610b3c8361073f565b925082610b4c57610b4b610afa565b5b828204905092915050565b5f69ffffffffffffffffffff82169050919050565b610b7581610b57565b8114610b7f575f5ffd5b50565b5f81519050610b9081610b6c565b92915050565b5f819050919050565b610ba881610b96565b8114610bb2575f5ffd5b50565b5f81519050610bc381610b9f565b92915050565b5f81519050610bd781610774565b92915050565b5f5f5f5f5f60a08688031215610bf657610bf5610770565b5b5f610c0388828901610b82565b9550506020610c1488828901610bb5565b9450506040610c2588828901610bc9565b9350506060610c3688828901610bc9565b9250506080610c4788828901610b82565b9150509295509295909350565b5f610c5e82610b96565b9150610c6983610b96565b9250828202610c7781610b96565b91507f800000000000000000000000000000000000000000000000000000000000000084145f84121615610cae57610cad610a59565b5b8282058414831517610cc357610cc2610a59565b5b509291505056fea2646970667358221220f1d4575dad2822391749e64744f3ed18f77b18bc701bdbd7e436c1f49aaa962964736f6c634300081c0033",
					"opcodes": "PUSH1 0x80 PUSH1 0x40 MSTORE PUSH8 0x4563918244F40000 PUSH0 SSTORE CALLVALUE DUP1 ISZERO PUSH1 0x19 JUMPI PUSH0 PUSH0 REVERT JUMPDEST POP CALLER PUSH1 0x3 PUSH0 PUSH2 0x100 EXP DUP2 SLOAD DUP2 PUSH20 0xFFFFFFFFFFFFFFFFFFFFFFFFFFFFFFFFFFFFFFFF MUL NOT AND SWAP1 DUP4 PUSH20 0xFFFFFFFFFFFFFFFFFFFFFFFFFFFFFFFFFFFFFFFF AND MUL OR SWAP1 SSTORE POP PUSH2 0xD00 DUP1 PUSH2 0x67 PUSH0 CODECOPY PUSH0 RETURN INVALID PUSH1 0x80 PUSH1 0x40 MSTORE PUSH1 0x4 CALLDATASIZE LT PUSH2 0x54 JUMPI PUSH0 CALLDATALOAD PUSH1 0xE0 SHR DUP1 PUSH4 0x3430A88C EQ PUSH2 0x58 JUMPI DUP1 PUSH4 0x3CCFD60B EQ PUSH2 0x82 JUMPI DUP1 PUSH4 0x80DA04DA EQ PUSH2 0x98 JUMPI DUP1 PUSH4 0x8DA5CB5B EQ PUSH2 0xD4 JUMPI DUP1 PUSH4 0xB12B0B2B EQ PUSH2 0xFE JUMPI DUP1 PUSH4 0xB60D4288 EQ PUSH2 0x13A JUMPI JUMPDEST PUSH0 PUSH0 REVERT JUMPDEST CALLVALUE DUP1 ISZERO PUSH2 0x63 JUMPI PUSH0 PUSH0 REVERT JUMPDEST POP PUSH2 0x6C PUSH2 0x144 JUMP JUMPDEST PUSH1 0x40 MLOAD PUSH2 0x79 SWAP2 SWAP1 PUSH2 0x757 JUMP JUMPDEST PUSH1 0x40 MLOAD DUP1 SWAP2 SUB SWAP1 RETURN JUMPDEST CALLVALUE DUP1 ISZERO PUSH2 0x8D JUMPI PUSH0 PUSH0 REVERT JUMPDEST POP PUSH2 0x96 PUSH2 0x149 JUMP JUMPDEST STOP JUMPDEST CALLVALUE DUP1 ISZERO PUSH2 0xA3 JUMPI PUSH0 PUSH0 REVERT JUMPDEST POP PUSH2 0xBE PUSH1 0x4 DUP1 CALLDATASIZE SUB DUP2 ADD SWAP1 PUSH2 0xB9 SWAP2 SWAP1 PUSH2 0x79E JUMP JUMPDEST PUSH2 0x413 JUMP JUMPDEST PUSH1 0x40 MLOAD PUSH2 0xCB SWAP2 SWAP1 PUSH2 0x808 JUMP JUMPDEST PUSH1 0x40 MLOAD DUP1 SWAP2 SUB SWAP1 RETURN JUMPDEST CALLVALUE DUP1 ISZERO PUSH2 0xDF JUMPI PUSH0 PUSH0 REVERT JUMPDEST POP PUSH2 0xE8 PUSH2 0x44E JUMP JUMPDEST PUSH1 0x40 MLOAD PUSH2 0xF5 SWAP2 SWAP1 PUSH2 0x808 JUMP JUMPDEST PUSH1 0x40 MLOAD DUP1 SWAP2 SUB SWAP1 RETURN JUMPDEST CALLVALUE DUP1 ISZERO PUSH2 0x109 JUMPI PUSH0 PUSH0 REVERT JUMPDEST POP PUSH2 0x124 PUSH1 0x4 DUP1 CALLDATASIZE SUB DUP2 ADD SWAP1 PUSH2 0x11F SWAP2 SWAP1 PUSH2 0x84B JUMP JUMPDEST PUSH2 0x473 JUMP JUMPDEST PUSH1 0x40 MLOAD PUSH2 0x131 SWAP2 SWAP1 PUSH2 0x757 JUMP JUMPDEST PUSH1 0x40 MLOAD DUP1 SWAP2 SUB SWAP1 RETURN JUMPDEST PUSH2 0x142 PUSH2 0x488 JUMP JUMPDEST STOP JUMPDEST PUSH0 SLOAD DUP2 JUMP JUMPDEST PUSH1 0x3 PUSH0 SWAP1 SLOAD SWAP1 PUSH2 0x100 EXP SWAP1 DIV PUSH20 0xFFFFFFFFFFFFFFFFFFFFFFFFFFFFFFFFFFFFFFFF AND PUSH20 0xFFFFFFFFFFFFFFFFFFFFFFFFFFFFFFFFFFFFFFFF AND CALLER PUSH20 0xFFFFFFFFFFFFFFFFFFFFFFFFFFFFFFFFFFFFFFFF AND EQ PUSH2 0x1D8 JUMPI PUSH1 0x40 MLOAD PUSH32 0x8C379A000000000000000000000000000000000000000000000000000000000 DUP2 MSTORE PUSH1 0x4 ADD PUSH2 0x1CF SWAP1 PUSH2 0x8D0 JUMP JUMPDEST PUSH1 0x40 MLOAD DUP1 SWAP2 SUB SWAP1 REVERT JUMPDEST PUSH1 0x3 PUSH0 SWAP1 SLOAD SWAP1 PUSH2 0x100 EXP SWAP1 DIV PUSH20 0xFFFFFFFFFFFFFFFFFFFFFFFFFFFFFFFFFFFFFFFF AND PUSH20 0xFFFFFFFFFFFFFFFFFFFFFFFFFFFFFFFFFFFFFFFF AND CALLER PUSH20 0xFFFFFFFFFFFFFFFFFFFFFFFFFFFFFFFFFFFFFFFF AND EQ PUSH2 0x267 JUMPI PUSH1 0x40 MLOAD PUSH32 0x8C379A000000000000000000000000000000000000000000000000000000000 DUP2 MSTORE PUSH1 0x4 ADD PUSH2 0x25E SWAP1 PUSH2 0x8D0 JUMP JUMPDEST PUSH1 0x40 MLOAD DUP1 SWAP2 SUB SWAP1 REVERT JUMPDEST PUSH0 PUSH0 SWAP1 POP JUMPDEST PUSH1 0x1 DUP1 SLOAD SWAP1 POP DUP2 LT ISZERO PUSH2 0x308 JUMPI PUSH0 PUSH1 0x1 DUP3 DUP2 SLOAD DUP2 LT PUSH2 0x28E JUMPI PUSH2 0x28D PUSH2 0x8EE JUMP JUMPDEST JUMPDEST SWAP1 PUSH0 MSTORE PUSH1 0x20 PUSH0 KECCAK256 ADD PUSH0 SWAP1 SLOAD SWAP1 PUSH2 0x100 EXP SWAP1 DIV PUSH20 0xFFFFFFFFFFFFFFFFFFFFFFFFFFFFFFFFFFFFFFFF AND SWAP1 POP PUSH0 PUSH1 0x2 PUSH0 DUP4 PUSH20 0xFFFFFFFFFFFFFFFFFFFFFFFFFFFFFFFFFFFFFFFF AND PUSH20 0xFFFFFFFFFFFFFFFFFFFFFFFFFFFFFFFFFFFFFFFF AND DUP2 MSTORE PUSH1 0x20 ADD SWAP1 DUP2 MSTORE PUSH1 0x20 ADD PUSH0 KECCAK256 DUP2 SWAP1 SSTORE POP POP DUP1 DUP1 PUSH1 0x1 ADD SWAP2 POP POP PUSH2 0x26C JUMP JUMPDEST POP PUSH0 PUSH8 0xFFFFFFFFFFFFFFFF DUP2 GT ISZERO PUSH2 0x323 JUMPI PUSH2 0x322 PUSH2 0x91B JUMP JUMPDEST JUMPDEST PUSH1 0x40 MLOAD SWAP1 DUP1 DUP3 MSTORE DUP1 PUSH1 0x20 MUL PUSH1 0x20 ADD DUP3 ADD PUSH1 0x40 MSTORE DUP1 ISZERO PUSH2 0x351 JUMPI DUP2 PUSH1 0x20 ADD PUSH1 0x20 DUP3 MUL DUP1 CALLDATASIZE DUP4 CALLDATACOPY DUP1 DUP3 ADD SWAP2 POP POP SWAP1 POP JUMPDEST POP PUSH1 0x1 SWAP1 DUP1 MLOAD SWAP1 PUSH1 0x20 ADD SWAP1 PUSH2 0x367 SWAP3 SWAP2 SWAP1 PUSH2 0x69D JUMP JUMPDEST POP PUSH0 CALLER PUSH20 0xFFFFFFFFFFFFFFFFFFFFFFFFFFFFFFFFFFFFFFFF AND SELFBALANCE PUSH1 0x40 MLOAD PUSH2 0x38D SWAP1 PUSH2 0x975 JUMP JUMPDEST PUSH0 PUSH1 0x40 MLOAD DUP1 DUP4 SUB DUP2 DUP6 DUP8 GAS CALL SWAP3 POP POP POP RETURNDATASIZE DUP1 PUSH0 DUP2 EQ PUSH2 0x3C7 JUMPI PUSH1 0x40 MLOAD SWAP2 POP PUSH1 0x1F NOT PUSH1 0x3F RETURNDATASIZE ADD AND DUP3 ADD PUSH1 0x40 MSTORE RETURNDATASIZE DUP3 MSTORE RETURNDATASIZE PUSH0 PUSH1 0x20 DUP5 ADD RETURNDATACOPY PUSH2 0x3CC JUMP JUMPDEST PUSH1 0x60 SWAP2 POP JUMPDEST POP POP SWAP1 POP DUP1 PUSH2 0x410 JUMPI PUSH1 0x40 MLOAD PUSH32 0x8C379A000000000000000000000000000000000000000000000000000000000 DUP2 MSTORE PUSH1 0x4 ADD PUSH2 0x407 SWAP1 PUSH2 0x9D3 JUMP JUMPDEST PUSH1 0x40 MLOAD DUP1 SWAP2 SUB SWAP1 REVERT JUMPDEST POP JUMP JUMPDEST PUSH1 0x1 DUP2 DUP2 SLOAD DUP2 LT PUSH2 0x422 JUMPI PUSH0 DUP1 REVERT JUMPDEST SWAP1 PUSH0 MSTORE PUSH1 0x20 PUSH0 KECCAK256 ADD PUSH0 SWAP2 POP SLOAD SWAP1 PUSH2 0x100 EXP SWAP1 DIV PUSH20 0xFFFFFFFFFFFFFFFFFFFFFFFFFFFFFFFFFFFFFFFF AND DUP2 JUMP JUMPDEST PUSH1 0x3 PUSH0 SWAP1 SLOAD SWAP1 PUSH2 0x100 EXP SWAP1 DIV PUSH20 0xFFFFFFFFFFFFFFFFFFFFFFFFFFFFFFFFFFFFFFFF AND DUP2 JUMP JUMPDEST PUSH1 0x2 PUSH1 0x20 MSTORE DUP1 PUSH0 MSTORE PUSH1 0x40 PUSH0 KECCAK256 PUSH0 SWAP2 POP SWAP1 POP SLOAD DUP2 JUMP JUMPDEST PUSH0 SLOAD PUSH2 0x493 CALLVALUE PUSH2 0x5C0 JUMP JUMPDEST LT ISZERO PUSH2 0x4D4 JUMPI PUSH1 0x40 MLOAD PUSH32 0x8C379A000000000000000000000000000000000000000000000000000000000 DUP2 MSTORE PUSH1 0x4 ADD PUSH2 0x4CB SWAP1 PUSH2 0xA3B JUMP JUMPDEST PUSH1 0x40 MLOAD DUP1 SWAP2 SUB SWAP1 REVERT JUMPDEST PUSH1 0x1 CALLER SWAP1 DUP1 PUSH1 0x1 DUP2 SLOAD ADD DUP1 DUP3 SSTORE DUP1 SWAP2 POP POP PUSH1 0x1 SWAP1 SUB SWAP1 PUSH0 MSTORE PUSH1 0x20 PUSH0 KECCAK256 ADD PUSH0 SWAP1 SWAP2 SWAP1 SWAP2 SWAP1 SWAP2 PUSH2 0x100 EXP DUP2 SLOAD DUP2 PUSH20 0xFFFFFFFFFFFFFFFFFFFFFFFFFFFFFFFFFFFFFFFF MUL NOT AND SWAP1 DUP4 PUSH20 0xFFFFFFFFFFFFFFFFFFFFFFFFFFFFFFFFFFFFFFFF AND MUL OR SWAP1 SSTORE POP CALLVALUE PUSH1 0x2 PUSH0 CALLER PUSH20 0xFFFFFFFFFFFFFFFFFFFFFFFFFFFFFFFFFFFFFFFF AND PUSH20 0xFFFFFFFFFFFFFFFFFFFFFFFFFFFFFFFFFFFFFFFF AND DUP2 MSTORE PUSH1 0x20 ADD SWAP1 DUP2 MSTORE PUSH1 0x20 ADD PUSH0 KECCAK256 SLOAD PUSH2 0x57D SWAP2 SWAP1 PUSH2 0xA86 JUMP JUMPDEST PUSH1 0x2 PUSH0 CALLER PUSH20 0xFFFFFFFFFFFFFFFFFFFFFFFFFFFFFFFFFFFFFFFF AND PUSH20 0xFFFFFFFFFFFFFFFFFFFFFFFFFFFFFFFFFFFFFFFF AND DUP2 MSTORE PUSH1 0x20 ADD SWAP1 DUP2 MSTORE PUSH1 0x20 ADD PUSH0 KECCAK256 DUP2 SWAP1 SSTORE POP JUMP JUMPDEST PUSH0 PUSH0 PUSH2 0x5CA PUSH2 0x5F8 JUMP JUMPDEST SWAP1 POP PUSH0 PUSH8 0xDE0B6B3A7640000 DUP5 DUP4 PUSH2 0x5E2 SWAP2 SWAP1 PUSH2 0xAB9 JUMP JUMPDEST PUSH2 0x5EC SWAP2 SWAP1 PUSH2 0xB27 JUMP JUMPDEST SWAP1 POP DUP1 SWAP3 POP POP POP SWAP2 SWAP1 POP JUMP JUMPDEST PUSH0 PUSH0 PUSH20 0x694AA1769357215DE4FAC081BF1F309ADC325306 SWAP1 POP PUSH0 DUP2 PUSH20 0xFFFFFFFFFFFFFFFFFFFFFFFFFFFFFFFFFFFFFFFF AND PUSH4 0xFEAF968C PUSH1 0x40 MLOAD DUP2 PUSH4 0xFFFFFFFF AND PUSH1 0xE0 SHL DUP2 MSTORE PUSH1 0x4 ADD PUSH1 0xA0 PUSH1 0x40 MLOAD DUP1 DUP4 SUB DUP2 DUP7 GAS STATICCALL ISZERO DUP1 ISZERO PUSH2 0x65B JUMPI RETURNDATASIZE PUSH0 PUSH0 RETURNDATACOPY RETURNDATASIZE PUSH0 REVERT JUMPDEST POP POP POP POP PUSH1 0x40 MLOAD RETURNDATASIZE PUSH1 0x1F NOT PUSH1 0x1F DUP3 ADD AND DUP3 ADD DUP1 PUSH1 0x40 MSTORE POP DUP2 ADD SWAP1 PUSH2 0x67F SWAP2 SWAP1 PUSH2 0xBDD JUMP JUMPDEST POP POP POP SWAP2 POP POP PUSH5 0x2540BE400 DUP2 PUSH2 0x696 SWAP2 SWAP1 PUSH2 0xC54 JUMP JUMPDEST SWAP3 POP POP POP SWAP1 JUMP JUMPDEST DUP3 DUP1 SLOAD DUP3 DUP3 SSTORE SWAP1 PUSH0 MSTORE PUSH1 0x20 PUSH0 KECCAK256 SWAP1 DUP2 ADD SWAP3 DUP3 ISZERO PUSH2 0x713 JUMPI SWAP2 PUSH1 0x20 MUL DUP3 ADD JUMPDEST DUP3 DUP2 GT ISZERO PUSH2 0x712 JUMPI DUP3 MLOAD DUP3 PUSH0 PUSH2 0x100 EXP DUP2 SLOAD DUP2 PUSH20 0xFFFFFFFFFFFFFFFFFFFFFFFFFFFFFFFFFFFFFFFF MUL NOT AND SWAP1 DUP4 PUSH20 0xFFFFFFFFFFFFFFFFFFFFFFFFFFFFFFFFFFFFFFFF AND MUL OR SWAP1 SSTORE POP SWAP2 PUSH1 0x20 ADD SWAP2 SWAP1 PUSH1 0x1 ADD SWAP1 PUSH2 0x6BB JUMP JUMPDEST JUMPDEST POP SWAP1 POP PUSH2 0x720 SWAP2 SWAP1 PUSH2 0x724 JUMP JUMPDEST POP SWAP1 JUMP JUMPDEST JUMPDEST DUP1 DUP3 GT ISZERO PUSH2 0x73B JUMPI PUSH0 DUP2 PUSH0 SWAP1 SSTORE POP PUSH1 0x1 ADD PUSH2 0x725 JUMP JUMPDEST POP SWAP1 JUMP JUMPDEST PUSH0 DUP2 SWAP1 POP SWAP2 SWAP1 POP JUMP JUMPDEST PUSH2 0x751 DUP2 PUSH2 0x73F JUMP JUMPDEST DUP3 MSTORE POP POP JUMP JUMPDEST PUSH0 PUSH1 0x20 DUP3 ADD SWAP1 POP PUSH2 0x76A PUSH0 DUP4 ADD DUP5 PUSH2 0x748 JUMP JUMPDEST SWAP3 SWAP2 POP POP JUMP JUMPDEST PUSH0 PUSH0 REVERT JUMPDEST PUSH2 0x77D DUP2 PUSH2 0x73F JUMP JUMPDEST DUP2 EQ PUSH2 0x787 JUMPI PUSH0 PUSH0 REVERT JUMPDEST POP JUMP JUMPDEST PUSH0 DUP2 CALLDATALOAD SWAP1 POP PUSH2 0x798 DUP2 PUSH2 0x774 JUMP JUMPDEST SWAP3 SWAP2 POP POP JUMP JUMPDEST PUSH0 PUSH1 0x20 DUP3 DUP5 SUB SLT ISZERO PUSH2 0x7B3 JUMPI PUSH2 0x7B2 PUSH2 0x770 JUMP JUMPDEST JUMPDEST PUSH0 PUSH2 0x7C0 DUP5 DUP3 DUP6 ADD PUSH2 0x78A JUMP JUMPDEST SWAP2 POP POP SWAP3 SWAP2 POP POP JUMP JUMPDEST PUSH0 PUSH20 0xFFFFFFFFFFFFFFFFFFFFFFFFFFFFFFFFFFFFFFFF DUP3 AND SWAP1 POP SWAP2 SWAP1 POP JUMP JUMPDEST PUSH0 PUSH2 0x7F2 DUP3 PUSH2 0x7C9 JUMP JUMPDEST SWAP1 POP SWAP2 SWAP1 POP JUMP JUMPDEST PUSH2 0x802 DUP2 PUSH2 0x7E8 JUMP JUMPDEST DUP3 MSTORE POP POP JUMP JUMPDEST PUSH0 PUSH1 0x20 DUP3 ADD SWAP1 POP PUSH2 0x81B PUSH0 DUP4 ADD DUP5 PUSH2 0x7F9 JUMP JUMPDEST SWAP3 SWAP2 POP POP JUMP JUMPDEST PUSH2 0x82A DUP2 PUSH2 0x7E8 JUMP JUMPDEST DUP2 EQ PUSH2 0x834 JUMPI PUSH0 PUSH0 REVERT JUMPDEST POP JUMP JUMPDEST PUSH0 DUP2 CALLDATALOAD SWAP1 POP PUSH2 0x845 DUP2 PUSH2 0x821 JUMP JUMPDEST SWAP3 SWAP2 POP POP JUMP JUMPDEST PUSH0 PUSH1 0x20 DUP3 DUP5 SUB SLT ISZERO PUSH2 0x860 JUMPI PUSH2 0x85F PUSH2 0x770 JUMP JUMPDEST JUMPDEST PUSH0 PUSH2 0x86D DUP5 DUP3 DUP6 ADD PUSH2 0x837 JUMP JUMPDEST SWAP2 POP POP SWAP3 SWAP2 POP POP JUMP JUMPDEST PUSH0 DUP3 DUP3 MSTORE PUSH1 0x20 DUP3 ADD SWAP1 POP SWAP3 SWAP2 POP POP JUMP JUMPDEST PUSH32 0x4D757374206265206F776E657200000000000000000000000000000000000000 PUSH0 DUP3 ADD MSTORE POP JUMP JUMPDEST PUSH0 PUSH2 0x8BA PUSH1 0xD DUP4 PUSH2 0x876 JUMP JUMPDEST SWAP2 POP PUSH2 0x8C5 DUP3 PUSH2 0x886 JUMP JUMPDEST PUSH1 0x20 DUP3 ADD SWAP1 POP SWAP2 SWAP1 POP JUMP JUMPDEST PUSH0 PUSH1 0x20 DUP3 ADD SWAP1 POP DUP2 DUP2 SUB PUSH0 DUP4 ADD MSTORE PUSH2 0x8E7 DUP2 PUSH2 0x8AE JUMP JUMPDEST SWAP1 POP SWAP2 SWAP1 POP JUMP JUMPDEST PUSH32 0x4E487B7100000000000000000000000000000000000000000000000000000000 PUSH0 MSTORE PUSH1 0x32 PUSH1 0x4 MSTORE PUSH1 0x24 PUSH0 REVERT JUMPDEST PUSH32 0x4E487B7100000000000000000000000000000000000000000000000000000000 PUSH0 MSTORE PUSH1 0x41 PUSH1 0x4 MSTORE PUSH1 0x24 PUSH0 REVERT JUMPDEST PUSH0 DUP2 SWAP1 POP SWAP3 SWAP2 POP POP JUMP JUMPDEST POP JUMP JUMPDEST PUSH0 PUSH2 0x960 PUSH0 DUP4 PUSH2 0x948 JUMP JUMPDEST SWAP2 POP PUSH2 0x96B DUP3 PUSH2 0x952 JUMP JUMPDEST PUSH0 DUP3 ADD SWAP1 POP SWAP2 SWAP1 POP JUMP JUMPDEST PUSH0 PUSH2 0x97F DUP3 PUSH2 0x955 JUMP JUMPDEST SWAP2 POP DUP2 SWAP1 POP SWAP2 SWAP1 POP JUMP JUMPDEST PUSH32 0x43616C6C204661696C6564000000000000000000000000000000000000000000 PUSH0 DUP3 ADD MSTORE POP JUMP JUMPDEST PUSH0 PUSH2 0x9BD PUSH1 0xB DUP4 PUSH2 0x876 JUMP JUMPDEST SWAP2 POP PUSH2 0x9C8 DUP3 PUSH2 0x989 JUMP JUMPDEST PUSH1 0x20 DUP3 ADD SWAP1 POP SWAP2 SWAP1 POP JUMP JUMPDEST PUSH0 PUSH1 0x20 DUP3 ADD SWAP1 POP DUP2 DUP2 SUB PUSH0 DUP4 ADD MSTORE PUSH2 0x9EA DUP2 PUSH2 0x9B1 JUMP JUMPDEST SWAP1 POP SWAP2 SWAP1 POP JUMP JUMPDEST PUSH32 0x4469646E27742073656E6420656E6F7567682045544800000000000000000000 PUSH0 DUP3 ADD MSTORE POP JUMP JUMPDEST PUSH0 PUSH2 0xA25 PUSH1 0x16 DUP4 PUSH2 0x876 JUMP JUMPDEST SWAP2 POP PUSH2 0xA30 DUP3 PUSH2 0x9F1 JUMP JUMPDEST PUSH1 0x20 DUP3 ADD SWAP1 POP SWAP2 SWAP1 POP JUMP JUMPDEST PUSH0 PUSH1 0x20 DUP3 ADD SWAP1 POP DUP2 DUP2 SUB PUSH0 DUP4 ADD MSTORE PUSH2 0xA52 DUP2 PUSH2 0xA19 JUMP JUMPDEST SWAP1 POP SWAP2 SWAP1 POP JUMP JUMPDEST PUSH32 0x4E487B7100000000000000000000000000000000000000000000000000000000 PUSH0 MSTORE PUSH1 0x11 PUSH1 0x4 MSTORE PUSH1 0x24 PUSH0 REVERT JUMPDEST PUSH0 PUSH2 0xA90 DUP3 PUSH2 0x73F JUMP JUMPDEST SWAP2 POP PUSH2 0xA9B DUP4 PUSH2 0x73F JUMP JUMPDEST SWAP3 POP DUP3 DUP3 ADD SWAP1 POP DUP1 DUP3 GT ISZERO PUSH2 0xAB3 JUMPI PUSH2 0xAB2 PUSH2 0xA59 JUMP JUMPDEST JUMPDEST SWAP3 SWAP2 POP POP JUMP JUMPDEST PUSH0 PUSH2 0xAC3 DUP3 PUSH2 0x73F JUMP JUMPDEST SWAP2 POP PUSH2 0xACE DUP4 PUSH2 0x73F JUMP JUMPDEST SWAP3 POP DUP3 DUP3 MUL PUSH2 0xADC DUP2 PUSH2 0x73F JUMP JUMPDEST SWAP2 POP DUP3 DUP3 DIV DUP5 EQ DUP4 ISZERO OR PUSH2 0xAF3 JUMPI PUSH2 0xAF2 PUSH2 0xA59 JUMP JUMPDEST JUMPDEST POP SWAP3 SWAP2 POP POP JUMP JUMPDEST PUSH32 0x4E487B7100000000000000000000000000000000000000000000000000000000 PUSH0 MSTORE PUSH1 0x12 PUSH1 0x4 MSTORE PUSH1 0x24 PUSH0 REVERT JUMPDEST PUSH0 PUSH2 0xB31 DUP3 PUSH2 0x73F JUMP JUMPDEST SWAP2 POP PUSH2 0xB3C DUP4 PUSH2 0x73F JUMP JUMPDEST SWAP3 POP DUP3 PUSH2 0xB4C JUMPI PUSH2 0xB4B PUSH2 0xAFA JUMP JUMPDEST JUMPDEST DUP3 DUP3 DIV SWAP1 POP SWAP3 SWAP2 POP POP JUMP JUMPDEST PUSH0 PUSH10 0xFFFFFFFFFFFFFFFFFFFF DUP3 AND SWAP1 POP SWAP2 SWAP1 POP JUMP JUMPDEST PUSH2 0xB75 DUP2 PUSH2 0xB57 JUMP JUMPDEST DUP2 EQ PUSH2 0xB7F JUMPI PUSH0 PUSH0 REVERT JUMPDEST POP JUMP JUMPDEST PUSH0 DUP2 MLOAD SWAP1 POP PUSH2 0xB90 DUP2 PUSH2 0xB6C JUMP JUMPDEST SWAP3 SWAP2 POP POP JUMP JUMPDEST PUSH0 DUP2 SWAP1 POP SWAP2 SWAP1 POP JUMP JUMPDEST PUSH2 0xBA8 DUP2 PUSH2 0xB96 JUMP JUMPDEST DUP2 EQ PUSH2 0xBB2 JUMPI PUSH0 PUSH0 REVERT JUMPDEST POP JUMP JUMPDEST PUSH0 DUP2 MLOAD SWAP1 POP PUSH2 0xBC3 DUP2 PUSH2 0xB9F JUMP JUMPDEST SWAP3 SWAP2 POP POP JUMP JUMPDEST PUSH0 DUP2 MLOAD SWAP1 POP PUSH2 0xBD7 DUP2 PUSH2 0x774 JUMP JUMPDEST SWAP3 SWAP2 POP POP JUMP JUMPDEST PUSH0 PUSH0 PUSH0 PUSH0 PUSH0 PUSH1 0xA0 DUP7 DUP9 SUB SLT ISZERO PUSH2 0xBF6 JUMPI PUSH2 0xBF5 PUSH2 0x770 JUMP JUMPDEST JUMPDEST PUSH0 PUSH2 0xC03 DUP9 DUP3 DUP10 ADD PUSH2 0xB82 JUMP JUMPDEST SWAP6 POP POP PUSH1 0x20 PUSH2 0xC14 DUP9 DUP3 DUP10 ADD PUSH2 0xBB5 JUMP JUMPDEST SWAP5 POP POP PUSH1 0x40 PUSH2 0xC25 DUP9 DUP3 DUP10 ADD PUSH2 0xBC9 JUMP JUMPDEST SWAP4 POP POP PUSH1 0x60 PUSH2 0xC36 DUP9 DUP3 DUP10 ADD PUSH2 0xBC9 JUMP JUMPDEST SWAP3 POP POP PUSH1 0x80 PUSH2 0xC47 DUP9 DUP3 DUP10 ADD PUSH2 0xB82 JUMP JUMPDEST SWAP2 POP POP SWAP3 SWAP6 POP SWAP3 SWAP6 SWAP1 SWAP4 POP JUMP JUMPDEST PUSH0 PUSH2 0xC5E DUP3 PUSH2 0xB96 JUMP JUMPDEST SWAP2 POP PUSH2 0xC69 DUP4 PUSH2 0xB96 JUMP JUMPDEST SWAP3 POP DUP3 DUP3 MUL PUSH2 0xC77 DUP2 PUSH2 0xB96 JUMP JUMPDEST SWAP2 POP PUSH32 0x8000000000000000000000000000000000000000000000000000000000000000 DUP5 EQ PUSH0 DUP5 SLT AND ISZERO PUSH2 0xCAE JUMPI PUSH2 0xCAD PUSH2 0xA59 JUMP JUMPDEST JUMPDEST DUP3 DUP3 SDIV DUP5 EQ DUP4 ISZERO OR PUSH2 0xCC3 JUMPI PUSH2 0xCC2 PUSH2 0xA59 JUMP JUMPDEST JUMPDEST POP SWAP3 SWAP2 POP POP JUMP INVALID LOG2 PUSH5 0x6970667358 0x22 SLT KECCAK256 CALL 0xD4 JUMPI TSTORE 0xAD 0x28 0x22 CODECOPY OR BLOBHASH 0xE6 SELFBALANCE PREVRANDAO RETURN 0xED XOR 0xF7 PUSH28 0x18BC701BDBD7E436C1F49AAA962964736F6C634300081C0033000000 "
				},
				"gasEstimates": {
					"creation": {
						"codeDepositCost": "665600",
						"executionCost": "47064",
						"totalCost": "712664"
					},
					"external": {
						"addressToAmounFunded(address)": "2868",
						"fund()": "infinite",
						"fundersAdd(uint256)": "4966",
						"minimumUSD()": "2402",
						"owner()": "2552",
						"withdraw()": "infinite"
					}
				},
				"methodIdentifiers": {
					"addressToAmounFunded(address)": "b12b0b2b",
					"fund()": "b60d4288",
					"fundersAdd(uint256)": "80da04da",
					"minimumUSD()": "3430a88c",
					"owner()": "8da5cb5b",
					"withdraw()": "3ccfd60b"
				}
			},
			"storageLayout": {
				"storage": [
					{
						"astId": 55,
						"contract": "FundMe.sol:FundMe",
						"label": "minimumUSD",
						"offset": 0,
						"slot": "0",
						"type": "t_uint256"
					},
					{
						"astId": 58,
						"contract": "FundMe.sol:FundMe",
						"label": "fundersAdd",
						"offset": 0,
						"slot": "1",
						"type": "t_array(t_address)dyn_storage"
					},
					{
						"astId": 62,
						"contract": "FundMe.sol:FundMe",
						"label": "addressToAmounFunded",
						"offset": 0,
						"slot": "2",
						"type": "t_mapping(t_address,t_uint256)"
					},
					{
						"astId": 64,
						"contract": "FundMe.sol:FundMe",
						"label": "owner",
						"offset": 0,
						"slot": "3",
						"type": "t_address"
					}
				],
				"types": {
					"t_address": {
						"encoding": "inplace",
						"label": "address",
						"numberOfBytes": "20"
					},
					"t_array(t_address)dyn_storage": {
						"base": "t_address",
						"encoding": "dynamic_array",
						"label": "address[]",
						"numberOfBytes": "32"
					},
					"t_mapping(t_address,t_uint256)": {
						"encoding": "mapping",
						"key": "t_address",
						"label": "mapping(address => uint256)",
						"numberOfBytes": "32",
						"value": "t_uint256"
					},
					"t_uint256": {
						"encoding": "inplace",
						"label": "uint256",
						"numberOfBytes": "32"
					}
				}
			},
			"userdoc": {
				"kind": "user",
				"methods": {},
				"version": 1
			}
		}
	}
}